:100000000C942A000C948D000C9447000C9447002B
:100010000C9447000C9447000C9447000C94470044
:100020000C9447000C9447000C9447000C94470034
:100030000C9447000C9447000C9447000C94470024
:100040000C9447000C9447000C9447000C94470014
:100050000C94470011241FBECFE5D8E0DEBFCDBF12
:1000600010E0A0E6B0E0E6E2F9E002C005900D92F3
:10007000A036B107D9F710E0A0E6B0E001C01D92AC
:10008000A136B107E1F70E9449000C9491040C9449
:10009000CD0084E662E00E94100184E662E00E94E6
:1000A000100181E660E00E94700481E661E00E9438
:1000B000700481E662E00E9470048FB780688FBF91
:1000C0008BB780648BBF85B7816085BF85B7826041
:1000D00085BF8BB780688BBF85B7846085BF85B7C8
:1000E000886085BF81E662E00E9477048FEF99E621
:1000F000A8E181509040A040E1F700C0000081E6F7
:1001000062E00E947E048FEF99E6A8E18150904062
:10011000A040E1F700C00000E5CF1F920F920FB69C
:100120000F9211242F933F934F935F936F937F937D
:100130008F939F93AF93BF93EF93FF938091600052
:100140008823D1F081E660E00E9477048FEF93ED81
:10015000A0E381509040A040E1F700C0000081E69C
:1001600060E00E947E048FEF93EDA0E38150904009
:10017000A040E1F700C00000FF91EF91BF91AF9167
:100180009F918F917F916F915F914F913F912F91AF
:100190000F900FBE0F901F9018951F920F920FB6E1
:1001A0000F9211242F933F934F935F936F937F93FD
:1001B0008F939F93AF93BF93EF93FF9380916000D2
:1001C0008823D1F081E661E00E9477048FEF93ED00
:1001D000A0E381509040A040E1F700C0000081E61C
:1001E00061E00E947E048FEF93EDA0E38150904088
:1001F000A040E1F700C0000081E080936000FF9123
:10020000EF91BF91AF919F918F917F916F915F918E
:100210004F913F912F910F900FBE0F901F90189507
:1002200040E00E94200108950E94F70208950E9474
:100230008F0208950E945C0308950E947C03089534
:10024000843409F471C0853448F4823499F18334DC
:1002500008F04DC0813409F083C00FC0823651F1DF
:10026000833620F4813609F07BC007C0833609F459
:100270003EC0843609F074C057C0413069F42AB3D7
:1002800081E090E0AC0102C0440F551F6A95E2F78F
:10029000BA01622B6ABB08952AB381E090E0AC01F9
:1002A00002C0440F551F6A95E2F7BA0160956223B8
:1002B0006ABB0895413069F427B381E090E0AC0156
:1002C00002C0440F551F6A95E2F7BA01622B67BB63
:1002D000089527B381E090E0AC0102C0440F551FA0
:1002E0006A95E2F7BA016095622367BB08954130D1
:1002F00069F424B381E090E0AC0102C0440F551FC3
:100300006A95E2F7BA01622B64BB089524B381E0D9
:1003100090E0AC0102C0440F551F6A95E2F7BA01A4
:100320006095622364BB0895413069F421B381E094
:1003300090E0AC0102C0440F551F6A95E2F7BA0184
:10034000622B61BB089521B381E090E0AC0102C053
:10035000440F551F6A95E2F7BA016095622361BBAD
:100360000895843409F471C0853448F4823499F1D5
:10037000833408F04DC0813409F083C00FC0823649
:1003800051F1833620F4813609F07BC007C08336F3
:1003900009F43EC0843609F074C057C0413069F496
:1003A0002BB381E090E0AC0102C0440F551F6A9569
:1003B000E2F7BA01622B6BBB08952BB381E090E0AA
:1003C000AC0102C0440F551F6A95E2F7BA0160956F
:1003D00062236BBB0895413069F428B381E090E05B
:1003E000AC0102C0440F551F6A95E2F7BA01622BB7
:1003F00068BB089528B381E090E0AC0102C0440FCF
:10040000551F6A95E2F7BA016095622368BB0895AB
:10041000413069F425B381E090E0AC0102C0440FA3
:10042000551F6A95E2F7BA01622B65BB089525B3A3
:1004300081E090E0AC0102C0440F551F6A95E2F7DD
:10044000BA016095622365BB0895413069F422B317
:1004500081E090E0AC0102C0440F551F6A95E2F7BD
:10046000BA01622B62BB089522B381E090E0AC0137
:1004700002C0440F551F6A95E2F7BA0160956223E6
:1004800062BB0895843409F43DC0853440F482345D
:10049000F9F0833450F5813409F040C00CC0823645
:1004A000B9F0833618F48136C9F505C08336E9F012
:1004B0008436A1F527C02BB381E090E0AC0102C0E7
:1004C000440F551F6A95E2F7BA0162276BBB089586
:1004D00028B381E090E0AC0102C0440F551F6A953B
:1004E000E2F7BA01622768BB089525B381E090E086
:1004F000AC0102C0440F551F6A95E2F7BA016227AA
:1005000065BB089522B381E090E0AC0102C0440FC6
:10051000551F6A95E2F7BA01622762BB08958434D9
:1005200009F451C0853440F4823439F18334C0F584
:10053000813409F05AC00EC08236F9F0833620F4B7
:10054000813609F052C006C0833651F1843609F075
:100550004CC039C029B381E090E0062E02C0880F5C
:10056000991F0A94E2F730E08223932302C0959505
:1005700087956A95E2F7982F38C026B381E090E01E
:10058000062E02C0880F991F0A94E2F730E08223FA
:10059000932302C0959587956A95E2F7982F25C019
:1005A00023B381E090E0062E02C0880F991F0A94C1
:1005B000E2F730E08223932302C0959587956A95F0
:1005C000E2F7982F12C020B381E090E0062E02C01F
:1005D000880F991F0A94E2F730E08223932302C028
:1005E000959587956A95E2F7982F892F0895843419
:1005F000D9F0853438F4823499F0833498F4813416
:10060000A1F40CC0823661F0833618F4813669F4A7
:1006100005C0833639F0843641F406C06ABB0895BC
:1006200067BB089564BB089561BB08958434D9F015
:10063000853438F4823499F0833498F48134A1F409
:100640000CC0823661F0833618F4813669F405C037
:10065000833639F0843641F406C06BBB089568BB1D
:10066000089565BB089562BB0895843409F185340B
:1006700038F48234A9F08334B8F48134E1F40CC046
:10068000823671F0833618F48136A9F405C08336BA
:1006900059F0843681F40CC08BB380958BBB0895E0
:1006A00088B3809588BB089585B3809585BB0895F0
:1006B00082B3809582BB08958434D9F0853438F4B0
:1006C000823499F0833498F48134A1F40CC08236DA
:1006D00061F0833618F4813669F405C0833639F049
:1006E000843641F406C099B305C096B303C093B3F2
:1006F00001C093B3892F089500B602FC90C08434E2
:1007000009F471C0853448F4823499F1833408F0D7
:100710004DC0813409F083C00FC0823651F1833659
:1007200020F4813609F07BC007C0833609F43EC04F
:10073000843609F074C057C0413069F42BB381E0AE
:1007400090E0AC0102C0440F551F6A95E2F7BA0170
:10075000622B6BBB08952BB381E090E0AC0102C02B
:10076000440F551F6A95E2F7BA01609562236BBB8F
:100770000895413069F428B381E090E0AC0102C0F3
:10078000440F551F6A95E2F7BA01622B68BB0895C2
:1007900028B381E090E0AC0102C0440F551F6A9578
:1007A000E2F7BA016095622368BB0895413069F4AD
:1007B00025B381E090E0AC0102C0440F551F6A955B
:1007C000E2F7BA01622B65BB089525B381E090E0A2
:1007D000AC0102C0440F551F6A95E2F7BA0160955B
:1007E000622365BB0895413069F422B381E090E053
:1007F000AC0102C0440F551F6A95E2F7BA01622BA3
:1008000062BB089522B381E090E0AC0102C0440FC6
:10081000551F6A95E2F7BA016095622362BB08959D
:100820000F931F93CF93C82F062F462F417060E080
:100830000E94B10110E0A801427050705595479593
:100840008C2F61E00E94B101A80144705070559551
:100850004795559547958C2F62E00E94B10108702D
:100860001070A8015595479555954795559547950D
:100870008C2F63E00E94B101CF911F910F910895D9
:100880000F931F93CF93C82F062F462F417064E01C
:100890000E94B10110E0A801427050705595479533
:1008A0008C2F65E00E94B101A801447050705595ED
:1008B0004795559547958C2F66E00E94B1010870C9
:1008C0001070A801559547955595479555954795AD
:1008D0008C2F67E00E94B101CF911F910F91089575
:1008E00041E00E94200108950E94F702089541E02E
:1008F0000E94B10108950E941603089540E00E94ED
:10090000B10108950E94160308950E9442020895BD
:100910000E94350308950E948F0208950E945C038F
:060920000895F894FFCFDA
:00000001FF
