:100000000C942A000C9447000C9447000C94470071
:100010000C9447000C9447000C9447000C94470044
:100020000C9447000C9447000C9447000C94470034
:100030000C9447000C9447000C9447000C94470024
:100040000C9447000C9447000C9447000C94470014
:100050000C94470011241FBECFE5D8E0DEBFCDBF12
:1000600010E0A0E6B0E0E0EEFDE002C005900D92E9
:10007000A23FB107D9F710E0A2EFB0E001C01D9296
:10008000A23FB107E1F70E9454050C94EE060C94D0
:100090000000843409F471C0853448F4823499F145
:1000A000833408F04DC0813409F083C00FC082361C
:1000B00051F1833620F4813609F07BC007C08336C6
:1000C00009F43EC0843609F074C057C0413069F469
:1000D0002AB381E090E0AC0102C0440F551F6A953D
:1000E000E2F7BA01622B6ABB08952AB381E090E07F
:1000F000AC0102C0440F551F6A95E2F7BA01609542
:1001000062236ABB0895413069F427B381E090E02F
:10011000AC0102C0440F551F6A95E2F7BA01622B89
:1001200067BB089527B381E090E0AC0102C0440FA3
:10013000551F6A95E2F7BA016095622367BB08957F
:10014000413069F424B381E090E0AC0102C0440F77
:10015000551F6A95E2F7BA01622B64BB089524B378
:1001600081E090E0AC0102C0440F551F6A95E2F7B0
:10017000BA016095622364BB0895413069F421B3EC
:1001800081E090E0AC0102C0440F551F6A95E2F790
:10019000BA01622B61BB089521B381E090E0AC010C
:1001A00002C0440F551F6A95E2F7BA0160956223B9
:1001B00061BB0895843409F471C0853448F48234F5
:1001C00099F1833408F04DC0813409F083C00FC029
:1001D000823651F1833620F4813609F07BC007C0A6
:1001E000833609F43EC0843609F074C057C04130EC
:1001F00069F42BB381E090E0AC0102C0440F551FBD
:100200006A95E2F7BA01622B6BBB08952BB381E0CC
:1002100090E0AC0102C0440F551F6A95E2F7BA01A5
:10022000609562236BBB0895413069F428B381E087
:1002300090E0AC0102C0440F551F6A95E2F7BA0185
:10024000622B68BB089528B381E090E0AC0102C046
:10025000440F551F6A95E2F7BA016095622368BBA7
:100260000895413069F425B381E090E0AC0102C00B
:10027000440F551F6A95E2F7BA01622B65BB0895DA
:1002800025B381E090E0AC0102C0440F551F6A9590
:10029000E2F7BA016095622365BB0895413069F4C5
:1002A00022B381E090E0AC0102C0440F551F6A9573
:1002B000E2F7BA01622B62BB089522B381E090E0BD
:1002C000AC0102C0440F551F6A95E2F7BA01609570
:1002D000622362BB0895843409F43DC0853440F440
:1002E0008234F9F0833450F5813409F040C00CC0F9
:1002F0008236B9F0833618F48136C9F505C08336E5
:10030000E9F08436A1F527C02BB381E090E0AC0181
:1003100002C0440F551F6A95E2F7BA0162276BBB12
:10032000089528B381E090E0AC0102C0440F551F4E
:100330006A95E2F7BA01622768BB089525B381E0A8
:1003400090E0AC0102C0440F551F6A95E2F7BA0174
:10035000622765BB089522B381E090E0AC0102C042
:10036000440F551F6A95E2F7BA01622762BB0895F0
:10037000843409F451C0853440F4823439F1833433
:10038000C0F5813409F05AC00EC08236F9F08336C8
:1003900020F4813609F052C006C0833651F184360C
:1003A00009F04CC039C029B381E090E0062E02C0AC
:1003B000880F991F0A94E2F730E08223932302C04A
:1003C000959587956A95E2F7982F38C026B381E016
:1003D00090E0062E02C0880F991F0A94E2F730E0E1
:1003E0008223932302C0959587956A95E2F7982F0B
:1003F00025C023B381E090E0062E02C0880F991F2C
:100400000A94E2F730E08223932302C09595879502
:100410006A95E2F7982F12C020B381E090E0062E93
:1004200002C0880F991F0A94E2F730E082239323D9
:1004300002C0959587956A95E2F7982F892F0895C0
:100440008434D9F0853438F4823499F0833498F4C4
:100450008134A1F40CC0823661F0833618F4813601
:1004600069F405C0833639F0843641F406C06ABBAE
:10047000089567BB089564BB089561BB08958434F3
:10048000D9F0853438F4823499F0833498F4813487
:10049000A1F40CC0823661F0833618F4813669F419
:1004A00005C0833639F0843641F406C06BBB08952D
:1004B00068BB089565BB089562BB0895843409F153
:1004C000853438F48234A9F08334B8F48134E1F40B
:1004D0000CC0823671F0833618F48136A9F405C059
:1004E000833659F0843681F40CC08BB380958BBB76
:1004F000089588B3809588BB089585B3809585BBA2
:10050000089582B3809582BB08958434D9F08534F0
:1005100038F4823499F0833498F48134A1F40CC017
:10052000823661F0833618F4813669F405C083366B
:1005300039F0843641F406C099B305C096B303C0C0
:1005400093B301C093B3892F089500B602FC90C005
:10055000843409F471C0853448F4823499F18334C9
:1005600008F04DC0813409F083C00FC0823651F1CC
:10057000833620F4813609F07BC007C0833609F446
:100580003EC0843609F074C057C0413069F42BB3C3
:1005900081E090E0AC0102C0440F551F6A95E2F77C
:1005A000BA01622B6BBB08952BB381E090E0AC01E4
:1005B00002C0440F551F6A95E2F7BA0160956223A5
:1005C0006BBB0895413069F428B381E090E0AC0141
:1005D00002C0440F551F6A95E2F7BA01622B68BB4F
:1005E000089528B381E090E0AC0102C0440F551F8C
:1005F0006A95E2F7BA016095622368BB08954130BD
:1006000069F425B381E090E0AC0102C0440F551FAE
:100610006A95E2F7BA01622B65BB089525B381E0C4
:1006200090E0AC0102C0440F551F6A95E2F7BA0191
:100630006095622365BB0895413069F422B381E07F
:1006400090E0AC0102C0440F551F6A95E2F7BA0171
:10065000622B62BB089522B381E090E0AC0102C03E
:10066000440F551F6A95E2F7BA016095622362BB99
:1006700008950F931F93CF93C82F062F462F4170D5
:1006800060E00E94DA0010E0A801427050705595B9
:1006900047958C2F61E00E94DA00A80144705070E9
:1006A00055954795559547958C2F62E00E94DA0045
:1006B00008701070A8015595479555954795559523
:1006C00047958C2F63E00E94DA00CF911F910F9124
:1006D00008950F931F93CF93C82F062F462F417075
:1006E00064E00E94DA0010E0A80142705070559555
:1006F00047958C2F65E00E94DA00A8014470507085
:1007000055954795559547958C2F66E00E94DA00E0
:1007100008701070A80155954795559547955595C2
:1007200047958C2F67E00E94DA00CF911F910F91BF
:1007300008958EBB9FBB6DBBE29AE19AE199FECF13
:1007400008959FBB8EBBE09A8DB3089583E66FE05A
:100750000E94200283E664E041E00E94A50283E655
:1007600065E041E00E94A50283E666E041E00E9468
:10077000A50283E667E041E00E94A5020895FF928A
:100780000F931F93CF93DF93CDB7DEB760970FB66C
:10079000F894DEBF0FBECDBFDE011196E0E6F0E0BB
:1007A00080E101900D928150E1F7FF2483E660E043
:1007B00041E00E94DA0083E661E041E00E94DA0055
:1007C00083E662E041E00E94DA0083E663E041E014
:1007D0000E94DA0083E66F2D40E00E94DA0010E00C
:1007E000012F0C5F83E6602F0E94B801882391F4EB
:1007F000EF2DF0E0EE0FFF1FEE0FFF1FE10FF11DD9
:10080000EC0FFD1F118183E6602F0E94B801882341
:10081000D1F304C01F5F143019F70DC0812F60960B
:100820000FB6F894DEBF0FBECDBFDF91CF911F9101
:100830000F91FF900895F39484E0F81609F0B6CF75
:100840001FEFECCF82E660E041E00E94DA008FE922
:100850009FE00197F1F700C0000082E660E040E011
:100860000E94DA008FE99FE00197F1F700C00000D5
:100870000895CF93DF938FEF90E7A2E081509040EF
:10088000A040E1F700C0000081E664E041E00E9482
:10089000490081E665E041E00E94490081E666E0AA
:1008A00041E00E94490081E666E041E00E94490083
:1008B00082E660E041E00E94490082E661E041E0BA
:1008C0000E94490082E662E041E00E94490082E61F
:1008D00061E040E00E94DA00C5EDD4E082E090E003
:1008E000FE010995AFE1BEE41197F1F700C00000E9
:1008F00088E290E0FE0109958FE19EE40197F1F70F
:1009000000C000008CE090E0FE010995AFE1BEE47C
:100910001197F1F700C0000081E090E0FE01099519
:100920008FE19EE40197F1F700C0000086E090E0BF
:10093000FE010995AFE1BEE41197F1F700C0000098
:10094000DF91CF910895CF93C82F682F62956F7074
:1009500081E60E94690382E662E041E00E94DA00DB
:100960000E94220481E66C2F0E94690382E662E005
:1009700041E00E94DA000E9422048FE19EE4019788
:10098000F1F700C00000CF91089582E661E041E0F8
:100990000E94DA0082E662E040E00E94DA0082E62D
:1009A00061E040E00E94DA000895CF93C82F682FDD
:1009B00062956F7081E60E94690382E662E040E022
:1009C0000E94DA000E94220481E66C2F0E946903D3
:1009D00082E662E040E00E94DA000E9422040E9467
:1009E000C504CF910895CF93DF93EC0188818823CC
:1009F00031F021960E94A30489918823D9F78FE1D1
:100A00009EE40197F1F700C00000DF91CF910895B7
:100A100081E00E94D5048FE19EE40197F1F700C0C8
:100A200000000895282F2150223070F4613170F4B5
:100A3000662371F0813019F4962F91580AC08230E4
:100A400041F4962F915405C090E803C090E801C08E
:100A500090E8892F0E94D5048FE19EE40197F1F779
:100A600000C00000089541E00E94490008950E94DE
:100A70002002089541E00E94DA0008950E943F029A
:100A8000089540E00E94DA0008950E943F02089510
:100A90000E946B0108950E945E0208950E94B801B1
:100AA00008950E94850208954F925F926F927F92FF
:100AB0008F929F92BF92CF92DF92EF92FF920F930D
:100AC0001F93CF93DF9300D000D0CDB7DEB78FEF69
:100AD00089838A838B838C830E9439040E94A603B6
:100AE00081E660E00E94330581E661E00E94330503
:100AF00080E790E00E94F3048FEF99E6A8E181502F
:100B00009040A040E1F700C000000E94080580E688
:100B100090E00E94A1038F3FF1F58FE790E00E94E3
:100B2000F3040F2EF1E6EF2EFF24F02D0E94BF03F9
:100B3000082F8F3FD9F36E2D675581E00E94120573
:100B40008AE20E94A304C701602F0E9499030894BF
:100B5000E11CF11C95E6E916F10441F78FEF94E3EF
:100B6000ACE081509040A040E1F700C0000080E67A
:100B700090E060E00E9499030E94080589E890E0F7
:100B80000E94F3048FEF99E6A8E181509040A040C5
:100B9000E1F700C000000F2EF2E3EF2EF02D0F2E34
:100BA000FAE9CF2EF0E0DF2EF02D0F2EFCE0BF2E65
:100BB000F02D0F2EFAEB8F2EF0E09F2EF02D0F2E42
:100BC000F5EC6F2EF0E07F2EF02D0F2EFFEC4F2E68
:100BD000F0E05F2EF02D0E9408058FEF99E6A8E166
:100BE00081509040A040E1F700C00000C6010E9483
:100BF000F3048E010F5F1F4FFB2C0E94BF03D8012F
:100C00008C938F3FD1F381E06F2D0E9412058AE211
:100C10000E94A304F3940F5F1F4FB0E1FB1669F726
:100C20008FEF94E3ACE081509040A040E1F700C02A
:100C3000000081E690E00E94A1039981891709F0E4
:100C40004DC082E690E00E94A1039A81891709F0C5
:100C500045C083E690E00E94A1039B818917F1F5CE
:100C600084E690E00E94A1039C818917B9F58FEF7B
:100C700099E6A8E181509040A040E1F700C0000053
:100C80000E9408058FEF99E6A8E181509040A040AE
:100C9000E1F700C0000086EA90E00E94F3048FEFC5
:100CA00099E6A8E181509040A040E1F700C0000023
:100CB00082E061E00E94120580EB90E00E94F30464
:100CC0008FEF99E6A8E181509040A040E1F700C085
:100CD000000081E660E00E943A056AC090E3E916F0
:100CE00089F10E9408058FEF99E6A8E181509040B4
:100CF000A040E1F700C00000C4010E94F30482E0BC
:100D000061E00E941205C3010E94F3048FEF99E68F
:100D1000A8E181509040A040E1F700C000000E948F
:100D20000805C2010E94F3048E2D0E94A3048FEFD8
:100D300099E6A8E181509040A040E1F700C0000092
:100D4000EA9449CF8FEF99E6A8E181509040A04006
:100D5000E1F700C000000E9408058FEF99E6A8E1C6
:100D600081509040A040E1F700C000008CED90E081
:100D70000E94F3048FEF99E6A8E181509040A040D3
:100D8000E1F700C0000082E061E00E94120586EEFB
:100D900090E00E94F3048FEF99E6A8E18150904023
:100DA000A040E1F700C0000081E661E00E943A0542
:100DB00080E090E00F900F900F900F90DF91CF9117
:100DC0001F910F91FF90EF90DF90CF90BF909F9079
:100DD0008F907F906F905F904F900895F894FFCF21
:100DE0003738392F3435362A3132332D41303D2BC7
:100DF0002020202057656C636F6D652020200053F4
:100E0000657420506173733A004E6F772053657498
:100E1000204E6577205061737300436865636B20D3
:100E2000506173733A00547275652050617373009A
:100E30004F70656E20536166650057726F6E672054
:100E4000506173730054727920416761696E004884
:100E50006176652054726965733A2000456E64209E
:100E6000547269657300436C6F73652053616665E6
:020E7000000080
:00000001FF
