S012000053746F702057617463682E7372656355
S11300000C942A000C94FC080C9441090C94630988
S11300100C9447000C94E1070C9447000C9447009F
S11300200C9447000C9447000C9447000C94470030
S11300300C9447000C9447000C9447000C94470020
S11300400C9447000C9447000C9447000C94470010
S11300500C94470011241FBECFE5D8E0DEBFCDBF0E
S113006011E0A0E6B0E0E8E1F2E202C005900D92F2
S1130070A639B107D9F711E0A6E9B1E001C01D9294
S1130080A93AB107E1F70E94800A0C940A110C9472
S11300900000843409F471C0853448F4823499F141
S11300A0833408F04DC0813409F083C00FC0823618
S11300B051F1833620F4813609F07BC007C08336C2
S11300C009F43EC0843609F074C057C0413069F465
S11300D02AB381E090E0AC0102C0440F551F6A9539
S11300E0E2F7BA01622B6ABB08952AB381E090E07B
S11300F0AC0102C0440F551F6A95E2F7BA0160953E
S113010062236ABB0895413069F427B381E090E02B
S1130110AC0102C0440F551F6A95E2F7BA01622B85
S113012067BB089527B381E090E0AC0102C0440F9F
S1130130551F6A95E2F7BA016095622367BB08957B
S1130140413069F424B381E090E0AC0102C0440F73
S1130150551F6A95E2F7BA01622B64BB089524B374
S113016081E090E0AC0102C0440F551F6A95E2F7AC
S1130170BA016095622364BB0895413069F421B3E8
S113018081E090E0AC0102C0440F551F6A95E2F78C
S1130190BA01622B61BB089521B381E090E0AC0108
S11301A002C0440F551F6A95E2F7BA0160956223B5
S11301B061BB0895843409F471C0853448F48234F1
S11301C099F1833408F04DC0813409F083C00FC025
S11301D0823651F1833620F4813609F07BC007C0A2
S11301E0833609F43EC0843609F074C057C04130E8
S11301F069F42BB381E090E0AC0102C0440F551FB9
S11302006A95E2F7BA01622B6BBB08952BB381E0C8
S113021090E0AC0102C0440F551F6A95E2F7BA01A1
S1130220609562236BBB0895413069F428B381E083
S113023090E0AC0102C0440F551F6A95E2F7BA0181
S1130240622B68BB089528B381E090E0AC0102C042
S1130250440F551F6A95E2F7BA016095622368BBA3
S11302600895413069F425B381E090E0AC0102C007
S1130270440F551F6A95E2F7BA01622B65BB0895D6
S113028025B381E090E0AC0102C0440F551F6A958C
S1130290E2F7BA016095622365BB0895413069F4C1
S11302A022B381E090E0AC0102C0440F551F6A956F
S11302B0E2F7BA01622B62BB089522B381E090E0B9
S11302C0AC0102C0440F551F6A95E2F7BA0160956C
S11302D0622362BB0895843409F43DC0853440F43C
S11302E08234F9F0833450F5813409F040C00CC0F5
S11302F08236B9F0833618F48136C9F505C08336E1
S1130300E9F08436A1F527C02BB381E090E0AC017D
S113031002C0440F551F6A95E2F7BA0162276BBB0E
S1130320089528B381E090E0AC0102C0440F551F4A
S11303306A95E2F7BA01622768BB089525B381E0A4
S113034090E0AC0102C0440F551F6A95E2F7BA0170
S1130350622765BB089522B381E090E0AC0102C03E
S1130360440F551F6A95E2F7BA01622762BB0895EC
S1130370843409F451C0853440F4823439F183342F
S1130380C0F5813409F05AC00EC08236F9F08336C4
S113039020F4813609F052C006C0833651F1843608
S11303A009F04CC039C029B381E090E0062E02C0A8
S11303B0880F991F0A94E2F730E08223932302C046
S11303C0959587956A95E2F7982F38C026B381E012
S11303D090E0062E02C0880F991F0A94E2F730E0DD
S11303E08223932302C0959587956A95E2F7982F07
S11303F025C023B381E090E0062E02C0880F991F28
S11304000A94E2F730E08223932302C095958795FE
S11304106A95E2F7982F12C020B381E090E0062E8F
S113042002C0880F991F0A94E2F730E082239323D5
S113043002C0959587956A95E2F7982F892F0895BC
S11304408434D9F0853438F4823499F0833498F4C0
S11304508134A1F40CC0823661F0833618F48136FD
S113046069F405C0833639F0843641F406C06ABBAA
S1130470089567BB089564BB089561BB08958434EF
S1130480D9F0853438F4823499F0833498F4813483
S1130490A1F40CC0823661F0833618F4813669F415
S11304A005C0833639F0843641F406C06BBB089529
S11304B068BB089565BB089562BB0895843409F14F
S11304C0853438F48234A9F08334B8F48134E1F407
S11304D00CC0823671F0833618F48136A9F405C055
S11304E0833659F0843681F40CC08BB380958BBB72
S11304F0089588B3809588BB089585B3809585BB9E
S1130500089582B3809582BB08958434D9F08534EC
S113051038F4823499F0833498F48134A1F40CC013
S1130520823661F0833618F4813669F405C0833667
S113053039F0843641F406C099B305C096B303C0BC
S113054093B301C093B3892F089500B602FC90C001
S1130550843409F471C0853448F4823499F18334C5
S113056008F04DC0813409F083C00FC0823651F1C8
S1130570833620F4813609F07BC007C0833609F442
S11305803EC0843609F074C057C0413069F42BB3BF
S113059081E090E0AC0102C0440F551F6A95E2F778
S11305A0BA01622B6BBB08952BB381E090E0AC01E0
S11305B002C0440F551F6A95E2F7BA0160956223A1
S11305C06BBB0895413069F428B381E090E0AC013D
S11305D002C0440F551F6A95E2F7BA01622B68BB4B
S11305E0089528B381E090E0AC0102C0440F551F88
S11305F06A95E2F7BA016095622368BB08954130B9
S113060069F425B381E090E0AC0102C0440F551FAA
S11306106A95E2F7BA01622B65BB089525B381E0C0
S113062090E0AC0102C0440F551F6A95E2F7BA018D
S11306306095622365BB0895413069F422B381E07B
S113064090E0AC0102C0440F551F6A95E2F7BA016D
S1130650622B62BB089522B381E090E0AC0102C03A
S1130660440F551F6A95E2F7BA016095622362BB95
S113067008950F931F93CF93C82F062F462F4170D1
S113068060E00E94DA0010E0A801427050705595B5
S113069047958C2F61E00E94DA00A80144705070E5
S11306A055954795559547958C2F62E00E94DA0041
S11306B008701070A801559547955595479555951F
S11306C047958C2F63E00E94DA00CF911F910F9120
S11306D008950F931F93CF93C82F062F462F417071
S11306E064E00E94DA0010E0A80142705070559551
S11306F047958C2F65E00E94DA00A8014470507081
S113070055954795559547958C2F66E00E94DA00DC
S113071008701070A80155954795559547955595BE
S113072047958C2F67E00E94DA00CF911F910F91BB
S1130730089583E660E041E00E94490083E661E0B9
S113074041E00E94490083E662E041E00E944900E2
S113075083E663E041E00E94490084E664E040E00F
S11307600E94490084E665E040E00E94490084E676
S113077066E040E00E94490084E667E040E00E94B1
S1130780490084E664E041E00E94A50284E665E055
S113079041E00E94A50284E666E041E00E94A502D1
S11307A084E667E041E00E94A50208952F923F92FB
S11307B04F925F926F927F928F929F92AF92BF926D
S11307C0DF92EF92FF920F931F93CF93DF93CDB7F6
S11307D0DEB768970FB6F894DEBF0FBECDBFDE015B
S11307E01196E0E6F0E080E101900D928150E1F78E
S11307F0198A81E08A8B82E08B8B83E08C8B84E086
S11308008D8B85E08E8B86E08F8B87E0888F0F2E13
S1130810F1E16F2E7724F02D6C0E7D1E882499242F
S11308202224332483E660E041E00E94DA0083E678
S113083061E041E00E94DA0083E662E041E00E9468
S1130840DA0083E663E041E00E94DA002401F30168
S113085061913F0183E640E00E94DA000F2EF5E14A
S1130860EF2EFF24F02DEC0EFD1E81015801F7013F
S1130870D1907F0184E66D2D0E94B801882391F404
S1130880F201EE0FFF1FEE0FFF1FAE0EBF1EFE01A3
S1130890EA0DFB1D018184E66D2D0E94B8018823B9
S11308A0D1F306C00F5F1F4F04301105F9F619C0CC
S11308B0802F68960FB6F894DEBF0FBECDBFDF91D0
S11308C0CF911F910F91FF90EF90DF90BF90AF9069
S11308D09F908F907F906F905F904F903F902F905C
S11308E008950894811C911CF4E08F16910409F07A
S11308F099CF0FEFDDCF81E660E041E00E94DA009E
S11309008FE99FE00197F1F700C0000081E660E005
S113091040E00E94DA008FE99FE00197F1F700C000
S113092000000895CF93DF938FEF90E7A2E081500A
S11309309040A040E1F700C0000081E664E041E09F
S11309400E94490081E665E041E00E94490081E699
S113095066E041E00E94490081E667E041E00E94D0
S1130960490081E660E041E00E94490081E661E0DF
S113097041E00E94490081E662E041E00E944900B2
S113098081E661E040E00E94DA00CEE2D5E082E058
S113099090E0FE010995AFE1BEE41197F1F700C0C4
S11309A0000088E290E0FE0109958FE19EE4019742
S11309B0F1F700C000008CE090E0FE010995AFE182
S11309C0BEE41197F1F700C0000081E090E0FE0161
S11309D009958FE19EE40197F1F700C0000086E0DD
S11309E090E0FE010995AFE1BEE41197F1F700C074
S11309F00000DF91CF910895CF93C82F682F62959F
S1130A006F7081E60E94690381E662E041E00E9422
S1130A10DA000E947B0481E66C2F0E94690381E660
S1130A2062E041E00E94DA000E947B048FE19EE4D0
S1130A300197F1F700C00000CF91089581E661E0CD
S1130A4041E00E94DA0081E662E040E00E94DA00C0
S1130A5081E661E040E00E94DA000895CF93C82F58
S1130A60682F62956F7081E60E94690381E662E0F7
S1130A7040E00E94DA000E947B0481E66C2F0E9411
S1130A80690381E662E040E00E94DA000E947B0490
S1130A900E941E05CF910895282F21502430C0F4C0
S1130AA06131C0F46623C1F0813019F4962F915856
S1130AB014C0823019F4962F91540FC0833019F466
S1130AC0962F91570AC0843041F4962F915305C054
S1130AD090E803C090E801C090E8892F0E942E0599
S1130AE08FE19EE40197F1F700C00000089581E0D2
S1130AF00E942E058FE19EE40197F1F700C00000EB
S1130B000895EF92FF920F931F93CF93DF93082FD3
S1130B10192FC0E0D0E0EE24FF2419C021960E94D2
S1130B20FC04C031D10539F482E090E061E070E06A
S1130B300E944C050CC0C032D10549F40E947705CF
S1130B4081E090E061E070E00E944C05E701F8016B
S1130B5081918F01882311F78FE19EE40197F1F7CA
S1130B6000C00000DF91CF911F910F91FF90EF9093
S1130B700895CF93DF93CDB7DEB72A970FB6F894D5
S1130B80DEBF0FBECDBF99231CF440E750E002C086
S1130B9042E750E02DB73EB7285030400FB6F894E6
S1130BA03EBF0FBE2DBFEDB7FEB731969E012F5F3E
S1130BB03F4FADB7BEB712963C932E93119723E7E0
S1130BC030E033832283558344839C01992324F4A6
S1130BD022273327281B390B378326830E94330EA1
S1130BE02DB73EB7285F3F4F0FB6F8943EBF0FBEF8
S1130BF02DBFCE0101960E9481058FE19EE40197ED
S1130C00F1F700C000002A960FB6F894DEBF0FBEBD
S1130C10CDBFDF91CF910895AF92BF92CF92DF9273
S1130C20EF92FF920F931F93CF93DF93CDB7DEB76D
S1130C302A970FB6F894DEBF0FBECDBF6B017C01BF
S1130C4020E030E0A9010E94DD0C88230CF064C090
S1130C50F7FAF094F7F8F094C701B6010E94E10C9A
S1130C60DC01CB015C01B501882777FD8095982FC5
S1130C700E94140D9B01AC01C701B6010E94780CBF
S1130C8020E030E048EC52E40E94C40D0E94E10CE4
S1130C9020E730E08DB79EB70A970FB6F8949EBF51
S1130CA00FBE8DBFEDB7FEB731968E010F5F1F4F9C
S1130CB0ADB7BEB712961C930E93119788E790E0D8
S1130CC09383828335832483B782A6827187608766
S1130CD00E94330E8DB79EB70A960FB6F8949EBF46
S1130CE00FBE8DBFC8010E948105AFE1BEE411971C
S1130CF0F1F700C000002A960FB6F894DEBF0FBECD
S1130D00CDBFDF91CF911F910F91FF90EF90DF90B6
S1130D10CF90BF90AF900895C701B6010E94E10C37
S1130D20DC01CB015C01B501882777FD8095982F04
S1130D300E94140D9B01AC01C701B6010E94780CFE
S1130D4020E030E048EC52E40E94C40D0E94E10C23
S1130D5022E730E09FCF41E00E94490008950E94BD
S1130D602002089541E00E94DA0008950E943F02A3
S1130D70089540E00E94DA0008950E943F02089519
S1130D800E946B0108950E945E0208950E94B801BA
S1130D9008950E94850208950E9420020895CF9329
S1130DA0DF93CDB7DEB760970FB6F894DEBF0FBE02
S1130DB0CDBFDE011196E2E8F0E090E101900D92E2
S1130DC09150E1F7FE01E60FF11D61810E943F029F
S1130DD060960FB6F894DEBF0FBECDBFDF91CF9102
S1130DE00895CF93DF93CDB7DEB72A970FB6F89463
S1130DF0DEBF0FBECDBFDE011196E2E9F0E09AE05E
S1130E0001900D929150E1F7FE01E60FF11D618111
S1130E100E943F022A960FB6F894DEBF0FBECDBFE4
S1130E20DF91CF910895CF93DF93C82FD62F41E060
S1130E300E9449006D2F6F5F8C2F41E00E94490092
S1130E406D2F6E5F8C2F41E00E9449006D2F6D5F06
S1130E508C2F41E00E944900DF91CF9108950E94B8
S1130E60390308950E946903089582E690E064E0DE
S1130E7070E041E050E00E94490082E690E065E0C5
S1130E8070E041E050E00E94490082E690E066E0B4
S1130E9070E040E050E00E94490082E690E067E0A4
S1130EA070E041E050E00E94490082E690E064E096
S1130EB070E041E050E00E94DA006E9A6D986C9AFE
S1130EC0689A08956C986E9A82E690E066E070E005
S1130ED041E050E00E94490082E690E064E070E066
S1130EE040E050E00E94490082E690E065E070E056
S1130EF040E050E00E94490082E690E067E070E044
S1130F0040E050E00E9449000895CF93DF93D82F2A
S1130F10C62F82E690E064E070E040E050E00E947A
S1130F20DA00DFB9779BFECFCFB9779BFECF82E69D
S1130F3090E064E070E041E050E00E94DA00DF916C
S1130F40CF910895CF93C82F82E690E064E070E0DB
S1130F5040E050E00E94DA00CFB9779BFECF8FEFDC
S1130F6099E6A8E181509040A040E1F700C000005C
S1130F708FB1CF9108958FB9779BFECF8FEF99E60C
S1130F80A8E181509040A040E1F700C000008FB17B
S1130F900895CF93DF93EC018881882379F021961B
S1130FA00E94A2078FEF92E5A7E081509040A040F5
S1130FB0E1F700C000008991882391F7DF91CF9178
S1130FC008951F920F920FB60F9211242F933F93FF
S1130FD04F935F936F937F938F939F93AF93BF933D
S1130FE0CF93EF93FF938091A0018C33C1F41092BF
S1130FF0A0018091A3018F5F8093A3018091A3013D
S11310008C3369F41092A301809199018F5F8093CE
S1131010990180919901883111F41092990180917C
S1131020A1018823E1F18091A7018823C1F5809172
S11310309901CAE06C2F0E94270E682F81E00E945C
S11310408507809199016C2F0E94270E82E0692FF9
S11310500E9485078091A3016C2F0E94270E682FA0
S113106084E00E9485078091A3016C2F0E94270EC3
S113107085E0692F0E9485078091A0016C2F0E9452
S1131080270E682F87E00E9485078091A0016C2FAE
S11310900E94270E88E0692F0E94850792C08091E4
S11310A0A701882309F48DC080919701CAE06C2FB1
S11310B00E94270E682F81E00E9485078091970186
S11310C06C2F0E94270E82E0692F0E948507809171
S11310D09D016C2F0E94270E682F84E00E948507D3
S11310E080919D016C2F0E94270E85E0692F0E943C
S11310F08507809196016C2F0E94270E682F87E048
S11311000E948507809196016C2F0E94270E88E02B
S1131110692F0E948507809196018823E1F49091BC
S11311209D01992309F064C080919701882331F5CA
S11311301092970110929D01109296011092A101B4
S11311401092A70184E660E00E94B20684E661E0A2
S11311500E94B20636C081508093960132C08091BD
S11311609D01882359F480919701882339F41092C2
S1131170970110929D011092960103C08BE3809316
S1131180960180919D01982F915090939D01882301
S1131190C1F4992349F480919701882329F410928A
S11311A0970110929D0103C08BE380939D01809170
S11311B09701982F915090939701882311F41092DE
S11311C097018091A0018F5F8093A001FF91EF911F
S11311D0CF91BF91AF919F918F917F916F915F91CB
S11311E04F913F912F910F900FBE0F901F90189524
S11311F0813009F4B4CFC2CF1F920F920FB60F9271
S113120011242F933F934F935F936F937F938F9307
S11312109F93AF93BF93EF93FF9380919C01882397
S113122069F080919B01882349F0109299011092F2
S1131230A3011092A00181E08093A1018091A501F6
S1131240882371F08091A701882351F484E660E03B
S11312500E94B90684E661E00E94B9061092A101D9
S1131260FF91EF91BF91AF919F918F917F916F917A
S11312705F914F913F912F910F900FBE0F901F9050
S113128018951F920F920FB60F9211248F9380918D
S1131290A201882391F080919B01882371F0109220
S11312A0A101809199018093A8018091A301809369
S11312B0A6018091A00180939E018F910F900FBE93
S11312C00F901F9018951F920F920FB60F92112432
S11312D08F9380919801882399F080919B018823B2
S11312E079F08091A801809399018091A60180935F
S11312F0A30180919E018093A00181E08093A101CC
S11313008F910F900FBE0F901F9018956F927F9240
S11313108F929F92AF92BF92CF92DF92EF92FF9201
S11313200F931F93CF93DF938FB78F778FBFCCE942
S1131330D0E007EA10E00F2EF3EBEF2EF0E0FF2EE3
S1131340F02D0F2EF0ECCF2EF0E0DF2EF02D0F2E2F
S1131350FEECAF2EF0E0BF2EF02D0F2EFBED8F2E06
S1131360F0E09F2EF02D0F2EF9EE6F2EF0E07F2E81
S1131370F02D0E947705CE010E94810581E069E08D
S11313800E944C050E94D60380939A018F3FD1F3AB
S11313900E94FC040E94D60380939F018F3FD1F3E7
S11313A00E94FC0490919F01905180919A01880FB2
S11313B0282F220F220F820F980F9093970182E01B
S11313C061E00E944C05C8010E94810582E06AE048
S11313D00E944C050E94D60380939A018F3FD1F35B
S11313E00E94FC040E94D60380939F018F3FD1F397
S11313F00E94FC0490919F01905180919A01880F62
S1131400282F220F220F820F980F90939D0183E0C3
S113141061E00E944C05C7010E94810583E06BE0F6
S11314200E944C050E94D60380939A018F3FD1F30A
S11314300E94FC040E94D60380939F018F3FD1F346
S11314400E94FC0490919F01905180919A01880F11
S1131450282F220F220F820F980F909396018FEF5F
S113146099E6A8E181509040A040E1F700C0000057
S113147080919701883140F490919D019C3320F430
S1131480209196012C3320F10E947705C6010E9419
S1131490810582E061E00E944C05C5010E9481053E
S11314A083E061E00E944C05C4010E94810584E050
S11314B061E00E944C05C3010E9481058FEF9EE903
S11314C0A4E281509040A040E1F700C0000051CF59
S11314D0809399019093A3012093A0018FB7806812
S11314E08FBFDF91CF911F910F91FF90EF90DF900D
S11314F0CF90BF90AF909F908F907F906F90089502
S113150084E660E00E94AB0684E661E00E94AB06DC
S11315100E9492040E949903C8EFD0E0CE010E9479
S1131520810582E061E00E944C0589E091E00E941F
S1131530810583E061E00E944C05CE010E94810593
S11315408FEF9EE9A4E281509040A040E1F700C0F3
S113155000000E94770588E191E00E94810582E005
S113156061E00E944C0588E291E00E94810583E0DD
S113157061E00E944C0586E391E00E94810584E0CD
S113158061E00E944C058FB780688FBF8BB7806481
S11315908BBF8BB780688BBF8BB780628BBF85B7DF
S11315A0816085BF85B7826085BF85B7846085BF4C
S11315B085B7886085BF84B7806484BF81E08093E9
S11315C098018093A20180939C010E94350789E0D1
S11315D06FEF0E9485078AE06FEF0E9485078BE01A
S11315E067EF0E9485078CE060E00E94850783E036
S11315F06AE00E94850786E06AE00E9485070E94EF
S1131600680C06E611E00F2EF3E7EF2EF1E0FF2E53
S1131610F02D0F2EFAE7CF2EF1E0DF2EF02D0F2E56
S1131620F8E1AF2EF1E0BF2EF02D0F2EF7E88F2E4C
S1131630F1E09F2EF02D0F2EF6E36F2EF1E07F2EBA
S1131640F02D0F2EF0E42F2EF1E03F2EF02D0E940E
S1131650D6038093A4018F3FD1F3813369F51092AF
S11316609B011092A70181E08093A1018CE060E0CE
S11316700E9485070E94770583E061E00E944C0583
S1131680C1010E9481058FEF94E3ACE0815090404A
S1131690A040E1F700C000000E9486098CE061E0F0
S11316A00E9485070E94770583E061E00E944C0553
S11316B0C1010E948105CBCF823349F581E080933B
S11316C09B011092A7018093A1011092990110929D
S11316D0A3011092A0018CE060E00E9485070E94A3
S11316E0770583E061E00E944C058FE491E00E945D
S11316F081058FEF94E3ACE081509040A040E1F786
S113170000C000008CE061E00E948507A0CF833315
S113171081F5552453945092A5015092A1018CE077
S113172060E00E9485070E94770583E061E00E94E3
S11317304C058DE591E00E9481058FEF94E3ACE0C8
S113174081509040A040E1F700C000000E9486094B
S11317505092A7010E94770583E061E00E944C0546
S11317608DE591E00E9481058CE061E00E9485078F
S11317706ECF1092A10110929B011092A7018CE0F0
S113178060E00E9485070E94770582E061E00E9484
S11317904C05C8010E9481058FEF99E6A8E18150AC
S11317A09040A040E1F700C000000E947705CE0100
S11317B00E94810582E061E00E944C05C7010E94FD
S11317C0810583E061E00E944C05C6010E94810509
S11317D084E061E00E944C05CE010E9481058FEFF8
S11317E099E6A8E181509040A040E1F700C00000D4
S11317F00E947705C5010E94810582E061E00E9494
S11318004C05C4010E94810583E061E00E944C05FF
S1131810C3010E94810584E061E00E944C0517CF5A
S113182083B7816083BF83B7846083BF83B78F7BB3
S113183083BF83B7877F83BF8FB780688FBF89B724
S1131840816089BF089583B7886083BF80E58CBFBA
S113185083B7816083BF83B7846083BF8FB7806899
S11318608FBF89B7826089BF0895BB9A83B78860A8
S113187083BF80E48CBF83B7816083BF83B78460F8
S113188083BF83B7806183BF0895BB9A83B78860A1
S113189083BF83B7806483BF80E48CBF83B78160D8
S11318A083BF83B7846083BF83B7806283BF089597
S11318B0BB9A83B7806483BF80E48CBF83B78160A5
S11318C083BF83B7846083BF83B7806283BF089577
S11318D082B5886082BD85B5816085BD85B584602B
S11318E085BD8FB780688FBF89B7806489BF08952D
S11318F05058BB27AA270ED00DC1FED030F003D11B
S113190020F031F49F3F11F41EF4F3C00EF4E0957F
S1131910E7FBE9C0E92F0FD180F3BA176207730719
S11319208407950718F071F49EF527C10EF4E0952D
S11319300B2EBA2FA02D0B01B90190010C01CA0185
S1131940A0011124FF27591B99F0593F50F4503E30
S113195068F11A16F040A22F232F342F4427585F22
S1131960F3CF469537952795A795F0405395C9F73A
S11319707EF41F16BA0B620B730B840BBAF09150F2
S1131980A1F0FF0FBB1F661F771F881FC2F70EC091
S1131990BA0F621F731F841F48F487957795679564
S11319A0B795F7959E3F08F0B3CF9395880F08F04D
S11319B09927EE0F97958795089571D008F481E0E3
S11319C0089504D06894B111D9C00895BCD088F0AA
S11319D09F5790F0B92F9927B751A0F0D1F0660F17
S11319E0771F881F991F1AF0BA95C9F712C0B13032
S11319F081F0C3D0B1E00895C0C0672F782F882745
S1131A00B85F39F0B93FCCF3869577956795B39570
S1131A10D9F73EF490958095709561957F4F8F4FDF
S1131A209F4F0895E89409C097FB3EF490958095E4
S1131A30709561957F4F8F4F9F4F9923A9F0F92F90
S1131A4096E9BB279395F695879577956795B7950E
S1131A50F111F8CFFAF4BB0F11F460FF1BC06F5FF4
S1131A607F4F8F4F9F4F16C0882311F096E911C006
S1131A70772321F09EE8872F762F05C0662371F027
S1131A8096E8862F70E060E02AF09A95660F771F3B
S1131A90881FDAF7880F9695879597F90895990F17
S1131AA00008550FAA0BE0E8FEEF16161706E80724
S1131AB0F907C0F012161306E407F50798F0621B45
S1131AC0730B840B950B39F40A2661F0232B242B1A
S1131AD0252B21F408950A2609F4A140A6958FEF39
S1131AE0811D811D089597F99F6780E870E060E08B
S1131AF008959FEF80EC089500240A9416161706A3
S1131B0018060906089500240A94121613061406EA
S1131B1005060895092E0394000C11F4882352F04D
S1131B20BB0F40F4BF2B11F460FF04C06F5F7F4F05
S1131B308F4F9F4F089557FD9058440F551F59F0EC
S1131B405F3F71F04795880F97FB991F61F09F3FA6
S1131B5079F087950895121613061406551FF2CFCF
S1131B604695F1DF08C0161617061806991FF1CF1F
S1131B7086957105610508940895E894BB27662746
S1131B807727CB0197F908950BD0C4CFB5DF28F0A0
S1131B90BADF18F0952309F0A6CFABCF1124EECF0E
S1131BA0CADFA0F3959FD1F3950F50E0551F629FB4
S1131BB0F001729FBB27F00DB11D639FAA27F00DA2
S1131BC0B11DAA1F649F6627B00DA11D661F829FC9
S1131BD02227B00DA11D621F739FB00DA11D621FAE
S1131BE0839FA00D611D221F749F3327A00D611DCB
S1131BF0231F849F600D211D822F762F6A2F1124AD
S1131C009F5750408AF0E1F088234AF0EE0FFF1FFF
S1131C10BB1F661F771F881F91505040A9F79E3F36
S1131C20510570F060CFAACF5F3FECF3983EDCF330
S1131C30869577956795B795F795E7959F5FC1F773
S1131C40FE2B880F911D9695879597F90895991BFA
S1131C5079E004C0991F961708F0961B881F7A959F
S1131C60C9F780950895AEE0B0E0E9E3FEE00C9496
S1131C70E1100D891E8986E08C831A8309838FEF16
S1131C809FE79E838D83AE01475E5F4FCE01019631
S1131C906F89788D0E94550EEF81F885E00FF11F52
S1131CA010822E96E4E00C94FD10ADE0B0E0EBE57C
S1131CB0FEE00C94D3103C017D876C875A01FC0133
S1131CC017821682838181FFC8C12E010894411CAA
S1131CD0511CF3019381EC85FD8593FD859193FF60
S1131CE08191FD87EC87882309F4B3C1853241F4DF
S1131CF093FD859193FF8191FD87EC87853229F4CB
S1131D0090E0B3010E944910E4CFFF24EE2410E0D8
S1131D101032B0F48B3269F08C3228F4803251F0F6
S1131D20833271F40BC08D3239F0803349F4116081
S1131D302CC01260146029C0186027C0106125C02F
S1131D4017FD2EC0282F20532A3098F416FF08C000
S1131D508F2D880FF82EFF0CFF0CF80EF20E15C015
S1131D608E2D880FE82EEE0CEE0CE80EE20E1062BB
S1131D700CC08E3221F416FD6CC1106406C08C3682
S1131D8011F4106802C0883659F4EC85FD8593FD82
S1131D90859193FF8191FD87EC87882309F0B8CF63
S1131DA0982F9554933018F09052933038F424E0DF
S1131DB030E0A20EB31E3FE339830FC0833631F007
S1131DC0833781F0833509F05AC022C0F501808140
S1131DD0898322E030E0A20EB31E21E0C22ED12C72
S1131DE0420114C092E0292E312C2A0C3B1CF5012F
S1131DF08080918016FF03C06F2D70E002C06FEFEA
S1131E007FEFC4010E943E106C0151011F7715C081
S1131E1082E0282E312C2A0C3B1CF5018080918015
S1131E2016FF03C06F2D70E002C06FEF7FEFC40197
S1131E300E9433106C011068510113FD1CC006C0D0
S1131E4080E290E0B3010E944910EA948E2D90E064
S1131E50C816D906A8F30FC0F40117FD859117FF22
S1131E6081914F0190E0B3010E944910E110EA947E
S1131E700894C108D108C114D10471F7E7C08436AD
S1131E8011F0893651F5F50117FF07C08081918162
S1131E90A281B38124E030E008C080819181AA2727
S1131EA097FDA095BA2F22E030E0A20EB31E012FB9
S1131EB00F76B7FF08C0B095A095909581959F4F78
S1131EC0AF4FBF4F0068BC01CD01A2012AE030E052
S1131ED00E947510D82ED4183FC0853721F41F7E78
S1131EE02AE030E020C0197F8F36A9F0803720F433
S1131EF0883509F0AEC00BC0803721F0883709F06F
S1131F00A8C001C0106114FF09C0146007C014FF09
S1131F1008C0166006C028E030E005C020E130E0CB
S1131F2002C020E132E0F50117FF07C06081718132
S1131F308281938144E050E006C06081718180E039
S1131F4090E042E050E0A40EB51EA2010E9475107C
S1131F50D82ED418012F0F7706FF09C00E7FDF1487
S1131F6030F404FF06C002FD04C00F7E02C01D2D24
S1131F7001C01F2D802F90E004FF0CC0FE01ED0D69
S1131F80F11D2081203311F4097E09C002FF06C02F
S1131F901E5F05C086789070009709F01F5F802E41
S1131FA0992403FD12C000FF0DC0FD2C1E1550F432
S1131FB0FE0CF11A1E2D06C080E290E0B3010E94CF
S1131FC049101F5F1E15C0F304C01E1510F4E11A5A
S1131FD001C0EE2484FE0FC080E390E0B3010E94B0
S1131FE0491082FE1FC081FE03C088E590E010C046
S1131FF088E790E00DC0C40186789070009791F056
S113200081FC02C080E201C08BE207FD8DE290E01A
S1132010B3010E94491006C080E390E0B3010E941E
S11320204910FA94DF14C0F3DA94F201ED0DF11DB6
S1132030808190E0B3010E944910DD20A9F706C019
S113204080E290E0B3010E944910EA94EE20C1F7C7
S113205040CEF3018681978102C08FEF9FEF2D96CA
S1132060E2E10C94EF10FC01059061507040011006
S1132070D8F7809590958E0F9F1F0895FC016150AD
S1132080704001900110D8F7809590958E0F9F1F96
S113209008950F931F93CF93DF938C01EB018B81F2
S11320A081FF1BC082FF0DC02E813F818C819D81E9
S11320B02817390764F4E881F9810193F983E883E7
S11320C006C0E885F985802F0995009731F48E8143
S11320D09F8101969F838E8302C00FEF1FEFC8017B
S11320E0DF91CF911F910F910895FA01AA2728300B
S11320F051F1203181F1E8946F936E7F6E5F7F4FD1
S11321008F4F9F4FAF4FB1E03ED0B4E03CD0670F4C
S1132110781F891F9A1FA11D680F791F8A1F911D9F
S1132120A11D6A0F711D811D911DA11D20D009F4EF
S113213068943F912AE0269F11243019305D319331
S1132140DEF6CF010895462F4770405D4193B3E01A
S11321500FD0C9F7F6CF462F4F70405D4A3318F0C1
S1132160495D31FD4052419302D0A9F7EACFB4E072
S1132170A6959795879577956795BA95C9F700972A
S11321806105710508959B01AC010A2E06945795CB
S1132190479537952795BA95C9F7620F731F841F22
S11321A0951FA01D08952F923F924F925F926F92B8
S11321B07F928F929F92AF92BF92CF92DF92EF92D3
S11321C0FF920F931F93CF93DF93CDB7DEB7CA1B54
S11321D0DB0B0FB6F894DEBF0FBECDBF09942A887F
S11321E0398848885F846E847D848C849B84AA8427
S11321F0B984C884DF80EE80FD800C811B81AA81B4
S1132200B981CE0FD11D0FB6F894DEBF0FBECDBF7E
S10B2210ED010895F894FFCFDD
S11322183738392F3435362A3132332D41303D2B76
S11322282D00002573256400257325642E252E3280
S113223864003F065B4F666D7D477F6F777C395E30
S1132248797140063172793F073E3767686F757256
S113225873203D202D2D006D696E757465203D2019
S11322682D2D007365636F6E6473203D202D2D0042
S1132278202056616C69642052616E676500686F3E
S1132288757273205B303A32335D006D696E757414
S113229865205B303A35395D007365636F6E64732E
S11322A8205B303A35395D002D2D2D2D2D2D2D2D0A
S11322B82D2D2D2D2D2D2D2D002053656C6563742A
S11322C8204F7074696F6E0031203A20576F726C1A
S11322D86420436C6F636B0032203A2053746F7030
S11322E857617463680033203A2054696D6572003D
S11322F8202020576F726C6420436C6F636B00203E
S1132308202053746F702057617463680020202064
S113231854696D65720057726F6E67204F707469E7
S11323286F6E0053656C6563740056616C69642054
S11323384F7074696F6E0032203A2053746F7020A6
S109234857617463680094
S9030000FC
