S01E00004D6573736167655F51756575655F4672656552544F532E73726563B4
S11300000C942A000C9447000C9447000C9447006D
S11300100C9447000C9447000C9447000C9422085D
S11300200C9447000C9447000C9447000C94470030
S11300300C9447000C9447000C9447000C94470020
S11300400C9447000C9447000C9447000C94470010
S11300500C94470011241FBECFE5D8E0DEBFCDBF0E
S113006010E0A0E6B0E0EAE8FCE302C005900D92DF
S1130070AC39B107D9F714E0ACE9B0E001C01D9286
S1130080A635B107E1F70E948A190C94431E0C941B
S11300900000843409F471C0853448F4823499F141
S11300A0833408F04DC0813409F083C00FC0823618
S11300B051F1833620F4813609F07BC007C08336C2
S11300C009F43EC0843609F074C057C0413069F465
S11300D02AB381E090E0AC0102C0440F551F6A9539
S11300E0E2F7BA01622B6ABB08952AB381E090E07B
S11300F0AC0102C0440F551F6A95E2F7BA0160953E
S113010062236ABB0895413069F427B381E090E02B
S1130110AC0102C0440F551F6A95E2F7BA01622B85
S113012067BB089527B381E090E0AC0102C0440F9F
S1130130551F6A95E2F7BA016095622367BB08957B
S1130140413069F424B381E090E0AC0102C0440F73
S1130150551F6A95E2F7BA01622B64BB089524B374
S113016081E090E0AC0102C0440F551F6A95E2F7AC
S1130170BA016095622364BB0895413069F421B3E8
S113018081E090E0AC0102C0440F551F6A95E2F78C
S1130190BA01622B61BB089521B381E090E0AC0108
S11301A002C0440F551F6A95E2F7BA0160956223B5
S11301B061BB0895843409F471C0853448F48234F1
S11301C099F1833408F04DC0813409F083C00FC025
S11301D0823651F1833620F4813609F07BC007C0A2
S11301E0833609F43EC0843609F074C057C04130E8
S11301F069F42BB381E090E0AC0102C0440F551FB9
S11302006A95E2F7BA01622B6BBB08952BB381E0C8
S113021090E0AC0102C0440F551F6A95E2F7BA01A1
S1130220609562236BBB0895413069F428B381E083
S113023090E0AC0102C0440F551F6A95E2F7BA0181
S1130240622B68BB089528B381E090E0AC0102C042
S1130250440F551F6A95E2F7BA016095622368BBA3
S11302600895413069F425B381E090E0AC0102C007
S1130270440F551F6A95E2F7BA01622B65BB0895D6
S113028025B381E090E0AC0102C0440F551F6A958C
S1130290E2F7BA016095622365BB0895413069F4C1
S11302A022B381E090E0AC0102C0440F551F6A956F
S11302B0E2F7BA01622B62BB089522B381E090E0B9
S11302C0AC0102C0440F551F6A95E2F7BA0160956C
S11302D0622362BB0895843409F43DC0853440F43C
S11302E08234F9F0833450F5813409F040C00CC0F5
S11302F08236B9F0833618F48136C9F505C08336E1
S1130300E9F08436A1F527C02BB381E090E0AC017D
S113031002C0440F551F6A95E2F7BA0162276BBB0E
S1130320089528B381E090E0AC0102C0440F551F4A
S11303306A95E2F7BA01622768BB089525B381E0A4
S113034090E0AC0102C0440F551F6A95E2F7BA0170
S1130350622765BB089522B381E090E0AC0102C03E
S1130360440F551F6A95E2F7BA01622762BB0895EC
S1130370843409F451C0853440F4823439F183342F
S1130380C0F5813409F05AC00EC08236F9F08336C4
S113039020F4813609F052C006C0833651F1843608
S11303A009F04CC039C029B381E090E0062E02C0A8
S11303B0880F991F0A94E2F730E08223932302C046
S11303C0959587956A95E2F7982F38C026B381E012
S11303D090E0062E02C0880F991F0A94E2F730E0DD
S11303E08223932302C0959587956A95E2F7982F07
S11303F025C023B381E090E0062E02C0880F991F28
S11304000A94E2F730E08223932302C095958795FE
S11304106A95E2F7982F12C020B381E090E0062E8F
S113042002C0880F991F0A94E2F730E082239323D5
S113043002C0959587956A95E2F7982F892F0895BC
S11304408434D9F0853438F4823499F0833498F4C0
S11304508134A1F40CC0823661F0833618F48136FD
S113046069F405C0833639F0843641F406C06ABBAA
S1130470089567BB089564BB089561BB08958434EF
S1130480D9F0853438F4823499F0833498F4813483
S1130490A1F40CC0823661F0833618F4813669F415
S11304A005C0833639F0843641F406C06BBB089529
S11304B068BB089565BB089562BB0895843409F14F
S11304C0853438F48234A9F08334B8F48134E1F407
S11304D00CC0823671F0833618F48136A9F405C055
S11304E0833659F0843681F40CC08BB380958BBB72
S11304F0089588B3809588BB089585B3809585BB9E
S1130500089582B3809582BB08958434D9F08534EC
S113051038F4823499F0833498F48134A1F40CC013
S1130520823661F0833618F4813669F405C0833667
S113053039F0843641F406C099B305C096B303C0BC
S113054093B301C093B3892F089500B602FC90C001
S1130550843409F471C0853448F4823499F18334C5
S113056008F04DC0813409F083C00FC0823651F1C8
S1130570833620F4813609F07BC007C0833609F442
S11305803EC0843609F074C057C0413069F42BB3BF
S113059081E090E0AC0102C0440F551F6A95E2F778
S11305A0BA01622B6BBB08952BB381E090E0AC01E0
S11305B002C0440F551F6A95E2F7BA0160956223A1
S11305C06BBB0895413069F428B381E090E0AC013D
S11305D002C0440F551F6A95E2F7BA01622B68BB4B
S11305E0089528B381E090E0AC0102C0440F551F88
S11305F06A95E2F7BA016095622368BB08954130B9
S113060069F425B381E090E0AC0102C0440F551FAA
S11306106A95E2F7BA01622B65BB089525B381E0C0
S113062090E0AC0102C0440F551F6A95E2F7BA018D
S11306306095622365BB0895413069F422B381E07B
S113064090E0AC0102C0440F551F6A95E2F7BA016D
S1130650622B62BB089522B381E090E0AC0102C03A
S1130660440F551F6A95E2F7BA016095622362BB95
S113067008950F931F93CF93C82F062F462F4170D1
S113068060E00E94DA0010E0A801427050705595B5
S113069047958C2F61E00E94DA00A80144705070E5
S11306A055954795559547958C2F62E00E94DA0041
S11306B008701070A801559547955595479555951F
S11306C047958C2F63E00E94DA00CF911F910F9120
S11306D008950F931F93CF93C82F062F462F417071
S11306E064E00E94DA0010E0A80142705070559551
S11306F047958C2F65E00E94DA00A8014470507081
S113070055954795559547958C2F66E00E94DA00DC
S113071008701070A80155954795559547955595BE
S113072047958C2F67E00E94DA00CF911F910F91BB
S11307300895442341F46823792381E06115710508
S113074051F480E008959B012823392381E0621746
S1130750730709F080E00895CF93DF938BE090E076
S11307600E944205EC01009731F0FC0111921192B4
S1130770CF010E941B068C2F9D2FDF91CF910895EE
S1130780AF92BF92CF92DF92EF92FF920F931F939B
S1130790CF93DF935C016B01E42EF22E0E94B50F20
S11307A0F501C081D181CE01B6014F2D0E9499037C
S11307B0882351F0EE2001F1C094D094CC22DD22A4
S11307C0F501D182C08218C001151105A9F0EE20EF
S11307D019F460E070E002C060E071E0F110746050
S11307E06C297D29C5010296A8010E9442120E942B
S11307F07A10882339F404C00E947A10CE0121C0F3
S11308000E946C070E94C813EC0191FD18C00FB63A
S1130810F8940F92F501C081D181CE01B6014F2D1C
S11308200E949903882349F0EE2039F0C094D094B3
S1130830CC22DD22F501D182C0820F900FBECE0101
S11308409070DF91CF911F910F91FF90EF90DF9007
S1130850CF90BF90AF900895FC010FB6F8940F921B
S11308608081918160957095682379237183608379
S11308700F900FBE0895FC01808191810895AF927D
S1130880BF92CF92DF92EF92FF920F931F93CF9379
S1130890DF938C01EB010F2EF5E0CF2EDD24F02D3C
S11308A0C80ED91E0E94B50FD8011796ED91FC9180
S11308B018978D919C9111978C2B9D2B11969C933D
S11308C08E93CE16DF06C1F1AA24BB24FF24F39431
S11308D0EE2401C0FE01C281D38180819181BC01DB
S11308E060709C01307092FD0BC0D8018D919C9179
S11308F01197822393234F2D009769F44E2D0BC03B
S1130900D8018D919C911197822393234F2D281701
S1130910390709F04E2D442359F070FF02C0A22A72
S1130920B32AD8016D917C917260CF010E94A61206
S1130930CC16DD0679F602C0AA24BB24C501809535
S11309409095F801A080B180A822B922B182A0823A
S11309500E947A10D8018C9111969C911197DF9185
S1130960CF911F910F91FF90EF90DF90CF90BF90A8
S1130970AF900895AF92BF92CF92DF92EF92FF9221
S11309800F931F93CF93DF936C01EB017A0159010D
S11309900E94B50FF60100811181C601BE010E94BB
S11309A03F04C02BD12BC7018C239D238E159F059B
S11309B051F480959095F60120813181822393230F
S11309C09183808312C0A114B10461F0B7017560F2
S11309D0C6010296A5010E9442120E947A10882341
S11309E049F406C0F601C081D1810E947A101CC06E
S11309F00E946C070E94C81391FD14C00FB6F894AE
S1130A000F92F601808191819701282339232E15B5
S1130A103F0531F4209530952823392331832083F1
S1130A200F900FBEEC01D0708C2F9D2FDF91CF91D2
S1130A301F910F91FF90EF90DF90CF90BF90AF90F8
S1130A400895CF93DF93EC010E94B50F8A81882328
S1130A5049F08F81988560E072E00E94A6128A8135
S1130A608823B9F7CE010E94E2050E947A10DF9133
S1130A70CF910895BA010E943F040895BA010E94DB
S1130A802C0408950F931F93CF93DF93EC010E94DE
S1130A90B50F80919C008823F9F486EA90E0909346
S1130AA09E0080939D001092A00010929F008FE101
S1130AB093E09093A4008093A300E3EAF0E0129201
S1130AC012929093A9008093A800F093A700E0935A
S1130AD0A60081E080939C00209709F462C09E01E7
S1130AE02C5F3F4F239683E0CE31D80708F05CC0DB
S1130AF0E0919D00F0919E00ADE9B0E002C0DF01FD
S1130B00FC01828193818217930720F48081918173
S1130B100097A9F7C0E0E13AFC0709F448C08D91B9
S1130B209C9111978C010C5F1F4F808191811196CC
S1130B309C938E9382819381821B930B89309105C0
S1130B4018F1AF01420F531FDA0113969C938E9351
S1130B5012973383228312962D913C9113976DE95A
S1130B6070E001C0BD01EB01A881B98112968D919D
S1130B709C91139782179307A8F3EA01B983A8837A
S1130B80DB0111965C934E9380916000909161001B
S1130B9022813381821B930B9093610080936000C8
S1130BA008C000E010E005C000E010E002C000E072
S1130BB010E00E947A10802F912FDF91CF911F9126
S1130BC00F9108950F931F93CF93DF93EC01009738
S1130BD039F18C01045010400E94B50FF8012281B4
S1130BE03381ADE9B0E001C0DF01ED91FC911197D3
S1130BF08281938182179307B8F32497F983E8835A
S1130C000D931C9380916000909161002A813B8137
S1130C10820F931F90936100809360000E947A106A
S1130C20DF91CF911F910F91089580916000909171
S1130C30610008950895FC010396928381832FEF48
S1130C403FEF348323839683858390878783108241
S1130C500895FC01118610860895CF93DF93FB015C
S1130C60DC011196CD91DC911297D383C2832C8140
S1130C703D8135832483AC81BD8113967C936E932F
S1130C8012977D836C8391878087FC0120812F5F7D
S1130C902083DF91CF910895CF93DF93AC01EB01D3
S1130CA0288139818FEF2F3F380721F4FA01A7817A
S1130CB0B0850DC0DA01139601C0DF011296ED91E3
S1130CC0FC9113978081918128173907B0F7129608
S1130CD0ED91FC911397FB83EA83D583C483BD8391
S1130CE0AC831396DC93CE93129759874887FA0105
S1130CF080818F5F8083DF91CF910895CF93DF93BD
S1130D00FC01C085D185A281B3818481958115962A
S1130D109C938E931497A481B581828193811396B9
S1130D209C938E931297A981BA81AE17BF0731F4B1
S1130D3014968D919C9115979A83898311861086B8
S1130D40888181508883DF91CF91089521E1FC014E
S1130D502083319732E23083FC013297A3E3A083EE
S1130D60FC0133976083FC0134977083FC01359751
S1130D701082FC01369760E86083FC01379710828B
S1130D80FC01389762E06083FC01399763E060837B
S1130D90FC013A9764E06083FC013B9765E0608363
S1130DA0FC013C9766E06083FC013D9767E060834B
S1130DB0FC013E9768E06083FC013F9769E0608333
S1130DC0FC01709760E16083FC0171972083FC0152
S1130DD0729722E12083FC01739723E12083FC01B5
S1130DE0749724E12083FC01759725E12083FC019D
S1130DF0769726E12083FC01779727E12083FC0185
S1130E00789728E12083FC01799729E12083FC016C
S1130E107A9720E22083FC017B9721E22083FC0166
S1130E207C973083FC017D9723E22083FC017E972D
S1130E304083FC017F975083FC01B09726E2208316
S1130E40FC01B19727E22083FC01B29728E22083BA
S1130E50FC01B39729E22083FC01B49720E32083AB
S1130E60FC01B59721E32083869708951BBC8CE78A
S1130E708ABD8BE08EBD89B7806189BFA091C5030F
S1130E80B091C603CD91CDBFDD91DEBFFF91EF914F
S1130E90DF91CF91BF91AF919F918F917F916F918E
S1130EA05F914F913F912F911F910F91FF90EF9080
S1130EB0DF90CF90BF90AF909F908F907F906F9076
S1130EC05F904F903F902F901F900F900FBE0F9008
S1130ED0089581E0089508950F920FB6F8940F9243
S1130EE01F9211242F923F924F925F926F927F92A2
S1130EF08F929F92AF92BF92CF92DF92EF92FF9226
S1130F000F931F932F933F934F935F936F937F930D
S1130F108F939F93AF93BF93CF93DF93EF93FF93FD
S1130F20A091C503B091C6030DB60D920EB60D92F5
S1130F300E948511A091C503B091C603CD91CDBF88
S1130F40DD91DEBFFF91EF91DF91CF91BF91AF9122
S1130F509F918F917F916F915F914F913F912F91CD
S1130F601F910F91FF90EF90DF90CF90BF90AF90C3
S1130F709F908F907F906F905F904F903F902F90B5
S1130F801F900F900FBE0F9008950F920FB6F89414
S1130F900F921F9211242F923F924F925F926F9261
S1130FA07F928F929F92AF92BF92CF92DF92EF92F5
S1130FB0FF920F931F932F933F934F935F936F93DE
S1130FC07F938F939F93AF93BF93CF93DF93EF93CD
S1130FD0FF93A091C503B091C6030DB60D920EB652
S1130FE00D920E94D50F882311F00E948511A091C3
S1130FF0C503B091C603CD91CDBFDD91DEBFFF9196
S1131000EF91DF91CF91BF91AF919F918F917F919C
S11310106F915F914F913F912F911F910F91FF908D
S1131020EF90DF90CF90BF90AF909F908F907F9084
S11310306F905F904F903F902F901F900F900FBE36
S11310400F9008950E94C50718950FB6F8940F9253
S1131050FC01928D0F900FBE81E0911180E0089504
S1131060FC01448D4423C1F026813781240F311DB6
S113107037832683A281B3812A173B0720F020817E
S113108031813783268336812781862F972F632FDB
S1131090722F50E00E94631B0895EF92FF920F930A
S11310A01F93CF938C010FB6F8940F92FC01C68D59
S11310B01C16CCF48189882331F415C0F801818988
S11310C0882341F410C00F2EF1E1EF2EFF24F02D00
S11310D0E00EF11EC7010E945B12882311F00E94EA
S11310E02013C15059F78FEFF801868F0F900FBE70
S11310F00FB6F8940F92F801C58D1C16C4F48085C0
S1131100882331F414C0F8018085882339F40FC092
S1131110EE24FF246894E3F8E00EF11EC7010E9458
S11311205B12882311F00E942013C15061F78FEFE6
S1131130F801858F0F900FBECF911F910F91FF90F3
S1131140EF9008950F931F93CF93DF93EC01142F27
S11311500A8D4C8D442361F488819981009709F0AC
S113116042C08A819B810E9487131B821A8242C0DB
S11311701123B9F48C819D8150E00E94631B2C8D56
S11311808C819D81820F911D9D838C832A813B815B
S11311908217930750F1888199819D838C8380E025
S11311A029C08E819F8150E00E94631B4C8D50E0CA
S11311B0509541955F4F8E819F81840F951F9F832A
S11311C08E83288139818217930730F48A819B8129
S11311D0840F951F9F838E83123049F4002349F0B6
S11311E0015080E007C080E005C080E003C080E0DB
S11311F001C080E00F5F0A8FDF91CF911F910F91A3
S11312000895CF93DF93EC010FB6F8940F924881C1
S113121059812B8D30E0EC8DF0E02E9FC0012F9F83
S1131220900D3E9F900D1124840F951F9B838A83FC
S11312301A8E5D834C83C9010197E89F9001E99F51
S1131240300DF89F300D1124240F351F3F832E835A
S11312508FEF8D8F8E8F662361F48885882389F0C4
S1131260CE0108960E945B12882359F00E946C07F5
S113127008C0CE0108960E941B06CE0141960E942A
S11312801B060F900FBE81E0DF91CF9108950F935D
S11312901F93CF93DF93082F162F662321F0689FA7
S11312A0C001112402C080E090E04F960E944205E4
S11312B0EC01009771F0112319F49983888303C01A
S11312C04F96998388830B8F1C8FCE0161E00E9417
S11312D001098C2F9D2FDF91CF911F910F910895BC
S11312E08F929F92BF92CF92DF92EF92FF920F93D1
S11312F01F93CF93DF9300D000D00F92CDB7DEB70A
S11313008C014B015D834C83E22EFF24BB24B394F8
S1131310CC24DD246894C3F8C80ED91E0FB6F89403
S11313200F92F801928D838D981718F0F2E0EF1662
S1131330D1F4C801B4014E2D0E94A208F80191898C
S1131340992349F0C80141960E945B12882339F021
S11313500E946C0704C0882311F00E946C070F9050
S11313600FBE81E052C08C819D81009721F40F90C3
S11313700FBE80E04AC0FF2029F4CE0101960E94EE
S1131380E012FB2C0F900FBE0E94B50F0FB6F8941D
S11313900F92F801858D8F3F09F4158EF801868D23
S11313A08F3F09F4168E0F900FBECE010196BE0139
S11313B06C5F7F4F0E94EB12882309F50FB6F894F7
S11313C00F92F801928D0F900FBEF801838D98173C
S11313D081F46C817D81C6010E943012C8010E9493
S11313E04D080E947A10882309F098CF0E946C0758
S11313F095CFC8010E944D080E947A108FCFC80172
S11314000E944D080E947A1080E00F900F900F9078
S11314100F900F90DF91CF911F910F91FF90EF905C
S1131420DF90CF90BF909F908F900895CF93DF93DC
S1131430482F81E060E00E944709EC01009761F0C9
S11314401B821A82198218821E8260E070E040E0DA
S113145050E020E00E9470098C2F9D2FDF91CF91E6
S11314600895EF92FF920F931F93CF938C017A010B
S1131470FC01928D838D981710F02230F1F4F8015D
S1131480C68DC801422F0E94A208CF3F89F4F801FB
S113149081898823A1F0C80141960E945B128823A8
S11314A081F0E114F10479F081E0F70180830CC04C
S11314B0CF5FF801C68F81E007C080E005C081E0FE
S11314C003C081E001C081E0CF911F910F91FF9093
S11314D0EF900895CF93DF93FC01EB01828D938D00
S11314E08917B8F4968D8F5F828F9F3F71F481893D
S11314F0882389F0CF0141960E945B12882369F00A
S1131500209769F081E088830BC09F5F968F81E00C
S113151007C080E005C081E003C081E001C081E034
S1131520DF91CF9108958F929F92AF92BF92CF9205
S1131530DF92EF92FF920F931F93CF93DF9300D02C
S113154000D00F92CDB7DEB77C014B015D834C8395
S1131550C22E00E0DD24D3940F2EF1E1AF2EBB2484
S1131560F02DA80EB91E0FB6F8940F92F701128D44
S1131570112399F1A680B780C701B4010E943008F5
S1131580CC20C9F41150F701128F8081918100970A
S113159029F40E94E013F70193838283F701808585
S11315A08823B9F0C70108960E945B12882389F04A
S11315B00E946C070EC0F701B782A6828189882336
S11315C041F0C70141960E945B12882311F00E94EA
S11315D06C070F900FBE81E061C08C819D810097E4
S11315E021F40F900FBE80E059C0002329F4CE01EE
S11315F001960E94E0120D2D0F900FBE0E94B50FB0
S11316000FB6F8940F92F701858D8F3F09F4158E6C
S1131610F701868D8F3F09F4168E0F900FBECE0111
S11316200196BE016C5F7F4F0E94EB12882351F537
S1131630C7010E9425088823F9F0F7018081918170
S1131640009751F40FB6F8940F92F70182819381B9
S11316500E9429130F900FBE6C817D81C5010E94E9
S11316603012C7010E944D080E947A10882309F0A5
S11316707ACF0E946C0777CFC7010E944D080E9461
S11316807A1071CFC7010E944D080E947A10C701D9
S11316900E942508882309F466CF80E00F900F90FC
S11316A00F900F900F90DF91CF911F910F91FF90AA
S11316B0EF90DF90CF90BF90AF909F908F90089560
S11316C0EF92FF920F931F93CF93DF938C017A01D4
S11316D0FC01C28DCC23E9F0D58D0E943008C150A5
S11316E0F801C28FDF3F81F480858823A1F0C8010F
S11316F008960E945B12882381F0E114F10479F0CA
S113170081E0F70180830CC0DF5FF801D58F81E0B1
S113171007C080E005C081E003C081E001C081E032
S1131720DF91CF911F910F91FF90EF9008950F9348
S11317301F93CF93DF93EC018A8D882349F00E81A8
S11317401F81CE010E9430081F830E8381E001C0F7
S113175080E0DF91CF911F910F9108950FB6F89417
S11317600F92FC01828D0F900FBE0895FC010FB6FD
S1131770F8940F92928D0F900FBE838D891B08955C
S1131780FC01828D0895FC01928D81E0911180E02D
S11317900895FC01228D81E0938D291380E0089542
S11317A0DC018091340490913504009751F0E8E312
S11317B0F4E021E030E0A90180819181009779F47F
S11317C002C040E050E0FA01EE0FFF1FEE0FFF1FD2
S11317D0EC5CFB4F71836083B383A28308952F5F16
S11317E03F4F34962830310531F70895AC0180918C
S11317F03604909137048417950759F0EAE3F4E02E
S113180021E030E0B901808191818417950769F462
S113181002C060E070E0FB01EE0FFF1FEE0FFF1F40
S1131820EC5CFB4F8081918108952F5F3F4F34968C
S11318302830310539F780E090E00895AC018091BB
S11318403604909137048417950759F0EAE3F4E0DD
S113185021E030E0B901808191818417950779F402
S113186002C060E070E0FB01EE0FFF1FEE0FFF1FF0
S1131870EC5CFB4F118210821382128208952F5F59
S11318803F4F34962830310529F70895CF93DF93DD
S1131890EC010E941E0CCE010E94E205DF91CF9163
S11318A00895FC018285938524E08932920761F4CE
S11318B02489358984E02731380741F081E02115F6
S11318C0310529F080E0089580E0089580E00895CE
S11318D0E091D503F091D6038081882339F48FEF0A
S11318E09FEF9093C9038093C8030895E091D503B3
S11318F0F091D6030580F681E02D0680F781E02D76
S1131900828193819093C9038093C8030895EF92D1
S1131910FF921F93CF93DF93EC01162FE090CF0338
S1131920F090D0038091C5039091C60302960E9463
S11319307E068FEFCF3FD80769F4112359F06091E9
S1131940C5037091C6036E5F7F4F89E294E00E94E5
S11319502D062FC0CE0DDF1DE091C503F091C60307
S1131960D383C283CE15DF0568F48091D3039091AD
S1131970D4036091C5037091C6036E5F7F4F0E94CC
S11319804C0617C08091D5039091D6036091C5038E
S11319907091C6036E5F7F4F0E944C068091C8030E
S11319A09091C903C817D90720F4D093C903C093F1
S11319B0C803DF91CF911F91FF90EF900895CF93CB
S11319C0DF93EC018F89988D0E94E205CE010E947D
S11319D0E205DF91CF9108952F923F924F925F924B
S11319E06F927F928F929F92AF92BF92DF92EF920B
S11319F0FF920F931F93CF93DF933C015B01EA01A6
S1131A002901D02E4701CA010E9442057C0100979A
S1131A1009F4EDC08AE290E00E9442058C0100972F
S1131A2081F0FC01F08EE78A219717012C0E3D1EF0
S1131A30F5018081F801818FF5018081882331F4DB
S1131A4013C0C7010E94E2058FEFD6C0E8016A9671
S1131A50D501119681E0FD019D919993908199237F
S1131A6019F08F5F8A30B9F7F80112A2CD2DC53075
S1131A7008F0C4E0F801C68BC3A314A2EE24FF242B
S1131A806894E1F8E00EF11EC7010E942906C8011E
S1131A900C960E942906F8011187008785E090E0E2
S1131AA08C1B910995878487138B028B15A216A230
S1131AB017A210A611A6C101B301A2010E94A60695
S1131AC0F801918380838114910419F0F401118346
S1131AD000830FB6F8940F928091D1038F5F8093A7
S1131AE0D1038091C5039091C603009709F03FC0CC
S1131AF01093C6030093C5038091D103813009F08C
S1131B0047C0C0E0D0E0CE01880F991F880F991F0D
S1131B10880F991F8C0F9D1F88529C4F0E941B0693
S1131B202196C530D10579F7C5E0D4E0CE010E94F5
S1131B301B060F2EFEE0AF2EF4E0BF2EF02DC501E4
S1131B400E941B0687E194E00E941B0680E294E059
S1131B500E941B0689E294E00E941B06D093D603E0
S1131B60C093D503B092D403A092D30311C0809143
S1131B70CD03882369F4E091C503F091C6039689E7
S1131B80F8018689891720F01093C6030093C503D2
S1131B908091D7038F5F8093D703F8018689909152
S1131BA0CE03981710F48093CE0390E09C01220F8B
S1131BB0331F220F331F220F331F820F931F8852AC
S1131BC09C4FB7010E942D060F900FBE8091CD034C
S1131BD0882379F0E091C503F091C6039689F80152
S1131BE08689981740F40E946C0781E005C08FEF46
S1131BF003C081E001C081E0DF91CF911F910F917B
S1131C00FF90EF90DF90BF90AF909F908F907F9068
S1131C106F905F904F903F902F9008950F931F9374
S1131C20CF93DF930FB6F8940F92009729F4C091E5
S1131C30C503D091C60301C0EC018E010E5F1F4F96
S1131C40C8010E947E068C899D89009721F0CE01EF
S1131C500C960E947E068091D7038F5F8093D703F2
S1131C608091C5039091C603C817D90759F480E23F
S1131C7094E0B8010E942D068091D2038F5F809377
S1131C80D2030AC08091D10381508093D103CE0145
S1131C900E94DF0C0E94680C0F900FBE8091CD0350
S1131CA0882349F08091C5039091C603C817D907CA
S1131CB011F40E946C07DF91CF911F910F91089549
S1131CC00FB6F8940F92009729F4E091C503F091B0
S1131CD0C60301C0FC010F900FBE868908950097CA
S1131CE029F4E091C503F091C60301C0FC01868983
S1131CF00895EF92FF921F93CF93DF93653008F01E
S1131D0064E00FB6F8940F92009729F4C091C503CC
S1131D10D091C60301C0EC012BA1261709F461C0C0
S1131D20261788F48091C5039091C603C817D90774
S1131D30A1F0E091C503F091C60311E0868968170C
S1131D4068F410E00BC08091C5039091C60311E0C4
S1131D50C817D90719F010E001C010E08E892817C0
S1131D6009F46E8B6BA32C853D85332334F025E079
S1131D7030E0261B31093D872C8790E09C01220F1F
S1131D80331F220F331F220F331F820F931F8852DA
S1131D909C4F2A853B8528173907F9F4EE24FF2444
S1131DA06894E1F8EC0EFD1EC7010E947E068E8940
S1131DB09091CE03981710F48093CE0390E09C0189
S1131DC0220F331F220F331F220F331F820F931F43
S1131DD088529C4FB7010E942D06112311F00E94D6
S1131DE06C070F900FBEDF91CF911F91FF90EF9082
S1131DF008950F931F93CF93DF93EC010097B9F1EC
S1131E008091C5039091C603C817D90781F10FB615
S1131E10F8940F92CE010E94510C882331F18E0167
S1131E200E5F1F4FC8010E947E068E899091CE03DB
S1131E30981710F48093CE0390E09C01220F331F77
S1131E40220F331F220F331F820F931F88529C4F80
S1131E50B8010E942D06E091C503F091C6039E8946
S1131E608689981710F00E946C070F900FBEDF91BF
S1131E70CF911F910F910895EF92FF921F93CF93EB
S1131E80DF93EC010E94510C8823B9F18091C703C0
S1131E90882351F5E091C503F091C60311E09E89B2
S1131EA08689981708F410E0EE24FF246894E1F87A
S1131EB0EC0EFD1EC7010E947E068E899091CE0312
S1131EC0981710F48093CE0390E09C01220F331FE7
S1131ED0220F331F220F331F820F931F88529C4FF0
S1131EE0B7010E942D060AC0BE01645F7F4F87E1DF
S1131EF094E00E942D0610E001C010E0812FDF91D4
S1131F00CF911F91FF90EF900895EF92FF920F935E
S1131F108AEF90E162E670E048EC50E020E030E0C7
S1131F2000E00F2EF2E3EF2EF4E0FF2EF02D0E94DE
S1131F30EC0C813081F4F8948FEF9FEF9093C903F8
S1131F408093C80381E08093CD031092D003109254
S1131F50CF030E9436070F91FF90EF900895F894F5
S1131F601092CD030E946B0708958091C7038F5F81
S1131F708093C70308950FB6F8940F928091CF030E
S1131F809091D0030F900FBE08958091CF0390914C
S1131F90D00308958091D1030895009721F480918E
S1131FA0C5039091C60349960895CF92DF92EF92AC
S1131FB0FF920F931F93CF93DF938091C7038823DE
S1131FC009F082C0C090CF03D090D0030894C11C04
S1131FD0D11CD092D003C092CF03C114D104B9F460
S1131FE08091D5039091D6032091D3033091D403EB
S1131FF03093D6032093D5039093D4038093D303D3
S11320008091CA038F5F8093CA030E94680C8091F9
S1132010C8039091C903C816D90620F4FF245AC0F6
S1132020FE2C03C0FF24EE24E394E091D503F09149
S1132030D6038081882339F48FEF9FEF9093C903EF
S11320408093C80347C0E091D503F091D60305807F
S1132050F681E02DC681D7818A819B81C816D90675
S113206028F49093C9038093C80334C08E010E5F93
S11320701F4FC8010E947E068C899D89009721F01C
S1132080CE010C960E947E068E899091CE039817FD
S113209010F48093CE0390E09C01220F331F220F93
S11320A0331F220F331F820F931F88529C4FB80196
S11320B00E942D06E091C503F091C6039E8986898E
S11320C0981708F0ADCFB1CF8091CC038F5F809388
S11320D0CC03FF248091CB03882311F0FF24F394D5
S11320E08F2DDF91CF911F910F91FF90EF90DF9093
S11320F0CF900895DF92EF92FF920F931F93CF93A7
S1132100DF930FB6F8940F928091C70381508093A8
S1132110C7038091C703882309F05FC08091D1036E
S1132120882391F55DC0E0911C04F0911D04C681E3
S1132130D781CE010C960E947E068E010E5F1F4F42
S1132140C8010E947E068E899091CE03981710F4E0
S11321508093CE0390E09C01220F331F220F331F84
S1132160220F331F820F931F88529C4FB8010E9485
S11321702D06E091C503F091C6039E8986899817C0
S113218068F0D092CB030AC0C0E0D0E00F2EF7E194
S1132190EF2EF4E0FF2EF02DDD24D394F70180819F
S11321A0882309F6209711F00E94680CC091CC0393
S11321B0CC2359F001E00E94D50F882311F000933D
S11321C0CB03C150C1F71092CC038091CB03882379
S11321D031F00E946C0781E003C080E001C080E020
S11321E00F900FBEDF91CF911F910F91FF90EF9051
S11321F0DF90089500E214E00F2EF8EDEF2EF3E0E7
S1132200FF2EF02D24C00E94B50FF801C0810E945A
S11322107A10CC23E1F00FB6F8940F92E0912504E4
S1132220F0912604C681D781CE0102960E947E06D3
S11322308091D10381508093D1038091D203815046
S11322408093D2030F900FBECE010E94DF0C8091C9
S1132250D2038823C1F6F70180818230C0F30E9443
S11322606C07F5CFCF93DF93EC01009751F00E94F8
S1132270B50FCE0160E00E94870C0E947A1088237B
S113228011F40E946C07DF91CF9108950F931F936F
S1132290CF93DF938C01EB010E94B50F8091CF03A4
S11322A09091D003F80120813181C20FD31F82178E
S11322B0930748F4C217D307F8F4D183C0838C176B
S11322C09D0778F407C0C217D30790F08C179D07B9
S11322D078F012C09E01281B390BC90160E00E94EE
S11322E0870C0E947A10882359F40E946C0708C056
S11322F0F801D183C083EECFF801D183C083F1CF3D
S1132300DF91CF911F910F9108958091C703882386
S113231021F081E08093CB0308951092CB032091A8
S1132320CE03822F90E0FC01EE0FFF1FEE0FFF1F84
S1132330EE0FFF1FE80FF91FE852FC4F30813323E3
S113234089F42150822F90E0FC01EE0FFF1FEE0F65
S1132350FF1FEE0FFF1FE80FF91FE852FC4F3081FB
S1132360332379F3DC01AA0FBB1FAA0FBB1FAA0FEB
S1132370BB1F8A0F9B1FDC01A852BC4F1196ED9125
S1132380FC9112970280F381E02D1296FC93EE9358
S11323901197CD010396E817F90731F482819381EF
S11323A012969C938E9311971196ED91FC9112972E
S11323B0868197819093C6038093C5032093CE03AF
S11323C008950F931F93CF93DF930FB6F8940F9252
S11323D0009729F40091C5031091C60301C08C0134
S11323E0E8012296CE010E947E06F801848995892F
S11323F0009721F0C8010C960E947E0689E294E0C1
S1132400BE010E942D060F900FBE8091CD0388233C
S113241039F00FB6F8940F920E94680C0F900FBE1B
S11324208091C5039091C60308171907A1F4809100
S1132430CD03882319F00E946C070DC08091D1034D
S113244090912904981729F41092C6031092C50399
S113245002C00E948511DF91CF911F910F910895C1
S1132460CF93DF93EB016091C5037091C603645F62
S11324707F4F0E944C06CE0161E00E94870CDF91E1
S1132480CF910895CF93DF93EA01E091C503F091D2
S1132490C6037068758764876091C5037091C6032D
S11324A0645F7F4F0E942D06CE0161E00E94870C7D
S11324B0DF91CF9108950F931F93CF93DF93DC01A6
S11324C01596ED91FC91169706811781E8012C96DB
S11324D0CE010E947E068091C7038823E9F4E801B7
S11324E02296CE010E947E06F80186899091CE0341
S11324F0981710F48093CE0390E09C01220F331FB1
S1132500220F331F220F331F820F931F88529C4FB9
S1132510BE010E942D0605C087E194E0BE010E9421
S11325202D06E091C503F091C603D80156969C91FF
S113253056978689891720F481E08093CB0301C0E4
S113254080E0DF91CF911F910F9108950F931F9316
S1132550CF93DF937068FC0171836083C681D78158
S11325600E947E068E010E5F1F4FC8010E947E06E8
S11325708E899091CE03981710F48093CE0390E047
S11325809C01220F331F220F331F220F331F820F90
S1132590931F88529C4FB8010E942D06E091C503F9
S11325A0F091C6039E898689891720F481E080937F
S11325B0CB0301C080E0DF91CF911F910F9108956B
S11325C0FC018091CA0380838091CF039091D00352
S11325D0928381830895FC01DB010FB6F8940F9276
S11325E06091CF037091D0034D915C9111978FEF5F
S11325F04F3F5807E9F08091CA039081981729F05A
S11326008181928168177907A8F4818192819B0165
S1132610281B390B2417350778F4861B970B840F76
S1132620951F8D939C93CF010E94E01280E005C01A
S113263080E003C081E001C081E00F900FBE0895E7
S113264081E08093CB0308958091C5039091C603E4
S113265008950F931F93CF93DF93EC01009709F430
S113266051C08E89E091C503F091C60396898917FC
S113267008F048C02C853D8533235CF0E091C50308
S1132680F091C603968925E030E0291B31093D8786
S11326902C8790E09C01220F331F220F331F220F3F
S11326A0331F820F931F88529C4F2A853B8528171E
S11326B0390711F58E010E5F1F4FC8010E947E0677
S11326C0E091C503F091C60386898E8B9091CE0369
S11326D0981710F48093CE0390E09C01220F331FCF
S11326E0220F331F220F331F820F931F88529C4FD8
S11326F0B8010E942D0606C0E091C503F091C603FF
S113270086898E8BDF91CF911F910F9108950F933E
S11327101F93CF93DF93EC01009781F18CA181503B
S11327208CA32E899BA1291759F1882359F58E0171
S11327300E5F1F4FC8010E947E064BA14E8B242FB3
S113274030E085E090E0821B930B9D878C8780911D
S1132750CE03841710F44093CE03C901880F991F48
S1132760880F991F880F991F280F391FC901885294
S11327709C4FB8010E942D0681E005C080E003C093
S113278080E001C080E0DF91CF911F910F91089507
S1132790E091C503F091C60384859585E091C50356
S11327A0F091C603A091C503B091C60356964C910F
S11327B0569725E030E0241B310935872487089596
S11327C08091C5039091C603009739F0E091C50349
S11327D0F091C60384A18F5F84A38091C503909177
S11327E0C60308950F931F93CF93C82F0FB6F89481
S11327F00F92E091C503F091C60385A196A1A7A10C
S1132800B0A50097A105B10579F4E091C503F09155
S1132810C60381E081A76115710531F0CB0161E048
S11328200E94870C0E946C070F900FBE0FB6F8949D
S11328300F92E091C503F091C60305A116A127A14B
S113284030A50115110521053105C1F0CC2349F04E
S1132850E091C503F091C60315A216A217A210A613
S11328600DC0E091C503F091C603D901C8010197D9
S1132870A109B10985A396A3A7A3B0A7E091C503B5
S1132880F091C60311A60F900FBE602F712F822FF7
S1132890932FCF911F910F9108958F929F92AF9292
S11328A0BF92EF92FF920F931F93DC01CB0149017A
S11328B05A010FB6F8940F92E091C503F091C60344
S11328C021A5223019F1E091C503F091C60345A179
S11328D056A167A170A580959095A095B095842385
S11328E09523A623B72385A396A3A7A3B0A7E09116
S11328F0C503F091C60381E081A7E114F10431F02E
S1132900C70161E00E94870C0E946C070F900FBE04
S11329100FB6F8940F920115110569F0E091C50303
S1132920F091C60385A196A1A7A1B0A5F801808363
S11329309183A283B383E091C503F091C60381A57B
S11329408130B1F0E091C503F091C60385A196A151
S1132950A7A1B0A580949094A094B09488229922C1
S1132960AA22BB2285A296A2A7A2B0A681E001C09A
S113297080E0E091C503F091C60311A60F900FBE4D
S11329801F910F91FF90EF90BF90AF909F908F9009
S113299008950F931F93CF93DF93EC010FB6F89430
S11329A00F920115110549F08DA19EA1AFA1B8A503
S11329B0F80180839183A283B38339A582E089A738
S11329C02230B9F0233018F4213051F505C02330FA
S11329D0E1F0243029F51EC08DA19EA1AFA1B8A5B8
S11329E0482B592B6A2B7B2B4DA35EA36FA378A78F
S11329F017C08DA19EA1AFA1B8A50196A11DB11DBF
S1132A008DA39EA3AFA3B8A70BC04DA35EA36FA3D2
S1132A1078A706C0323071F14DA35EA36FA378A7E7
S1132A20313051F58E010E5F1F4FC8010E947E06A2
S1132A308E899091CE03981710F48093CE0390E082
S1132A409C01220F331F220F331F220F331F820FCB
S1132A50931F88529C4FB8010E942D06E091C50334
S1132A60F091C6039E898689891740F40E946C07F9
S1132A7081E005C080E003C081E001C081E00F90E7
S1132A800FBEDF91CF911F910F910895EF92FF92A6
S1132A900F931F93CF93DF93EC010115110549F0B8
S1132AA08DA19EA1AFA1B8A5F80180839183A283D3
S1132AB0B38339A582E089A72230B9F0233018F412
S1132AC0213059F505C02330E1F0243031F51EC022
S1132AD08DA19EA1AFA1B8A5842B952BA62BB72BB6
S1132AE08DA39EA3AFA3B8A718C08DA19EA1AFA12B
S1132AF0B8A50196A11DB11D8DA39EA3AFA3B8A730
S1132B000CC04DA35EA36FA378A707C0323009F4AD
S1132B1041C04DA35EA36FA378A73130E9F580913E
S1132B20C7038823E9F48E010E5F1F4FC8010E947A
S1132B307E068E899091CE03981710F48093CE036D
S1132B4090E09C01220F331F220F331F220F331FEB
S1132B50820F931F88529C4FB8010E942D0607C014
S1132B60BE01645F7F4F87E194E00E942D06E091EF
S1132B70C503F091C6039E898689891778F4E11408
S1132B80F10421F081E0F701808309C081E08093A2
S1132B90CB0305C080E003C081E001C081E0DF9188
S1132BA0CF911F910F91FF90EF900895EF92FF92B4
S1132BB00F931F93CF93DF93EC018B0129A582E040
S1132BC089A78DA19EA1AFA1B8A50196A11DB11D94
S1132BD08DA39EA3AFA3B8A72130E9F58091C703C5
S1132BE0882301F5EE24FF246894E1F8EC0EFD1E21
S1132BF0C7010E947E068E899091CE03981710F427
S1132C008093CE0390E09C01220F331F220F331FC9
S1132C10220F331F820F931F88529C4FB7010E94CB
S1132C202D0607C0BE01645F7F4F87E194E00E94D8
S1132C302D06E091C503F091C6039E898689891704
S1132C4050F40115110521F081E0F801808303C0DF
S1132C5081E08093CB03DF91CF911F910F91FF907F
S1132C60EF900895009729F4E091C503F091C6030D
S1132C7001C0FC010FB6F8940F9281A5823019F4BB
S1132C8011A681E001C080E00F900FBE089583E695
S1132C9060E041E00E94490083E661E041E00E9477
S1132CA0490083E662E041E00E94490083E663E074
S1132CB041E00E94490084E664E040E00E9449004B
S1132CC084E665E040E00E94490084E666E040E076
S1132CD00E94490084E667E040E00E94490084E6DF
S1132CE064E041E00E94A50284E665E041E00E94C0
S1132CF0A50284E666E041E00E94A50284E667E05E
S1132D0041E00E94A50208952F923F924F925F9254
S1132D106F927F928F929F92AF92BF92DF92EF92C7
S1132D20FF920F931F93CF93DF93CDB7DEB76897CE
S1132D300FB6F894DEBF0FBECDBFDE011196E7E6F5
S1132D40F0E080E101900D928150E1F7198A81E071
S1132D508A8B82E08B8B83E08C8B84E08D8B85E087
S1132D608E8B86E08F8B87E0888F0F2EF1E16F2E9C
S1132D707724F02D6C0E7D1E88249924222433247C
S1132D8083E660E041E00E94DA0083E661E041E02E
S1132D900E94DA0083E662E041E00E94DA0083E602
S1132DA063E041E00E94DA002401F30161913F01F4
S1132DB083E640E00E94DA000F2EF5E1EF2EFF24B7
S1132DC0F02DEC0EFD1E81015801F701D1907F0119
S1132DD084E66D2D0E94B801882391F4F201EE0F70
S1132DE0FF1FEE0FFF1FAE0EBF1EFE01EA0DFB1DFF
S1132DF0018184E66D2D0E94B8018823D1F306C0B9
S1132E000F5F1F4F04301105F9F619C0802F689623
S1132E100FB6F894DEBF0FBECDBFDF91CF911F91E7
S1132E200F91FF90EF90DF90BF90AF909F908F90A5
S1132E307F906F905F904F903F902F9008950894EB
S1132E40811C911CF4E08F16910409F099CF0FEFC7
S1132E50DDCF81E660E041E00E94DA008FE99FE087
S1132E600197F1F700C0000081E660E040E00E94B5
S1132E70DA008FE99FE00197F1F700C000000895A0
S1132E80CF93DF938FEF90E7A2E081509040A04072
S1132E90E1F700C0000081E664E041E00E944900DF
S1132EA081E665E041E00E94490081E666E041E098
S1132EB00E94490081E667E041E00E94490081E602
S1132EC060E041E00E94490081E661E041E00E9447
S1132ED0490081E662E041E00E94490081E661E048
S1132EE040E00E94DA00CCEDD7E182E090E0FE0100
S1132EF00995AFE1BEE41197F1F700C0000088E244
S1132F0090E0FE0109958FE19EE40197F1F700C07E
S1132F1000008CE090E0FE010995AFE1BEE411975A
S1132F20F1F700C0000081E090E0FE0109958FE117
S1132F309EE40197F1F700C0000086E090E0FE01F6
S1132F400995AFE1BEE41197F1F700C00000DF91ED
S1132F50CF910895CF93C82F682F62956F7081E643
S1132F600E94690381E662E041E00E94DA000E9467
S1132F70291781E66C2F0E94690381E662E041E033
S1132F800E94DA000E9429178FE19EE40197F1F76D
S1132F9000C00000CF91089581E661E041E00E9405
S1132FA0DA0081E662E040E00E94DA0081E661E056
S1132FB040E00E94DA000895CF93C82F682F6295ED
S1132FC06F7081E60E94690381E662E040E00E943E
S1132FD0DA000E94291781E66C2F0E94690381E6BA
S1132FE062E040E00E94DA000E9429170E94CC1798
S1132FF0CF910895282F21502430C0F46131C0F4BA
S11330006623C1F0813019F4962F915814C0823090
S113301019F4962F91540FC0833019F4962F9157B9
S11330200AC0843041F4962F915305C090E803C040
S113303090E801C090E8892F0E94DC178FE19EE49C
S11330400197F1F700C00000089581E00E94DC17A9
S11330508FE19EE40197F1F700C000000895EF921C
S1133060FF920F931F93CF93DF93082F192FC0E084
S1133070D0E0EE24FF2419C021960E94AA17C03183
S1133080D10539F482E090E061E070E00E94FA1723
S11330900CC0C032D10549F40E94251881E090E0AB
S11330A061E070E00E94FA17E701F80181918F0155
S11330B0882311F78FE19EE40197F1F700C0000027
S11330C0DF91CF911F910F91FF90EF900895CF93CF
S11330D0DF93CDB7DEB72A970FB6F894DEBF0FBEE5
S11330E0CDBF99231CF447E750E002C049E750E004
S11330F02DB73EB7285030400FB6F8943EBF0FBEF0
S11331002DBFEDB7FEB731969E012F5F3F4FADB790
S1133110BEB712963C932E9311972AE730E033837F
S11331202283558344839C01992324F42227332743
S1133130281B390B378326830E946C1B2DB73EB79F
S1133140285F3F4F0FB6F8943EBF0FBE2DBFCE0190
S113315001960E942F188FE19EE40197F1F700C0B9
S113316000002A960FB6F894DEBF0FBECDBFDF91E4
S1133170CF910895AF92BF92CF92DF92EF92FF92D8
S11331800F931F93CF93DF93CDB7DEB72A970FB674
S1133190F894DEBF0FBECDBF6B017C0120E030E0B0
S11331A0A9010E94191A88230CF064C0F7FAF0945C
S11331B0F7F8F094C701B6010E941D1ADC01CB0197
S11331C05C01B501882777FD8095982F0E94501ADD
S11331D09B01AC01C701B6010E94B41920E030E0A4
S11331E048EC52E40E94001B0E941D1A27E730E0BD
S11331F08DB79EB70A970FB6F8949EBF0FBE8DBFCA
S1133200EDB7FEB731968E010F5F1F4FADB7BEB756
S113321012961C930E9311978FE790E09383828309
S113322035832483B782A682718760870E946C1BD2
S11332308DB79EB70A960FB6F8949EBF0FBE8DBF8A
S1133240C8010E942F18AFE1BEE41197F1F700C046
S113325000002A960FB6F894DEBF0FBECDBFDF91F3
S1133260CF911F910F91FF90EF90DF90CF90BF907F
S1133270AF900895C701B6010E941D1ADC01CB016D
S11332805C01B501882777FD8095982F0E94501A1C
S11332909B01AC01C701B6010E94B41920E030E0E3
S11332A048EC52E40E94001B0E941D1A29E730E0FA
S11332B09FCFCF93DF930F92CDB7DEB780915404A5
S11332C090915504BE016F5F7F4F48EE53E020E0BC
S11332D00E94930A898190E00E946718EFCFCF93F0
S11332E0DF930F92CDB7DEB70E94841689838F3F98
S11332F0D9F38091540490915504BE016F5F7F4FC0
S113330048EE53E020E00E9470098CE291E00E94B4
S11333103211EACF0E9447160E9440178FE699E1C6
S113332069E870E044E650E020E030E002E0EE249A
S1133330FF240E94EC0C89E599E162E970E044E61F
S113334050E020E030E001E00E94EC0C85E061E018
S113335040E00E94470990935504809354040E94CE
S1133360850F0E942518FDCF5058BB27AA270ED0E1
S11333700DC1FED030F003D120F031F49F3F11F4A1
S11333801EF4F3C00EF4E095E7FBE9C0E92F0FD17A
S113339080F3BA17620773078407950718F071F46E
S11333A09EF527C10EF4E0950B2EBA2FA02D0B012C
S11333B0B90190010C01CA01A0011124FF27591B76
S11333C099F0593F50F4503E68F11A16F040A22F7C
S11333D0232F342F4427585FF3CF469537952795ED
S11333E0A795F0405395C9F77EF41F16BA0B620BEC
S11333F0730B840BBAF09150A1F0FF0FBB1F661F33
S1133400771F881FC2F70EC0BA0F621F731F841F75
S113341048F4879577956795B795F7959E3F08F09B
S1133420B3CF9395880F08F09927EE0F979587955A
S1133430089571D008F481E0089504D06894B1111E
S1133440D9C00895BCD088F09F5790F0B92F992720
S1133450B751A0F0D1F0660F771F881F991F1AF09B
S1133460BA95C9F712C0B13081F0C3D0B1E0089564
S1133470C0C0672F782F8827B85F39F0B93FCCF3E5
S1133480869577956795B395D9F73EF49095809591
S1133490709561957F4F8F4F9F4F0895E89409C0B1
S11334A097FB3EF490958095709561957F4F8F4F73
S11334B09F4F9923A9F0F92F96E9BB279395F69589
S11334C0879577956795B795F111F8CFFAF4BB0F07
S11334D011F460FF1BC06F5F7F4F8F4F9F4F16C06B
S11334E0882311F096E911C0772321F09EE8872FF5
S11334F0762F05C0662371F096E8862F70E060E0B1
S11335002AF09A95660F771F881FDAF7880F969529
S1133510879597F90895990F0008550FAA0BE0E8CD
S1133520FEEF16161706E807F907C0F01216130681
S1133530E407F50798F0621B730B840B950B39F4C1
S11335400A2661F0232B242B252B21F408950A2627
S113355009F4A140A6958FEF811D811D089597F967
S11335609F6780E870E060E008959FEF80EC089525
S113357000240A941616170618060906089500244E
S11335800A9412161306140605060895092E0394C8
S1133590000C11F4882352F0BB0F40F4BF2B11F43C
S11335A060FF04C06F5F7F4F8F4F9F4F089557FD9B
S11335B09058440F551F59F05F3F71F04795880F9D
S11335C097FB991F61F09F3F79F087950895121634
S11335D013061406551FF2CF4695F1DF08C01616E0
S11335E017061806991FF1CF869571056105089491
S11335F00895E894BB2766277727CB0197F90895A8
S11336000BD0C4CFB5DF28F0BADF18F0952309F04A
S1133610A6CFABCF1124EECFCADFA0F3959FD1F391
S1133620950F50E0551F629FF001729FBB27F00D6C
S1133630B11D639FAA27F00DB11DAA1F649F6627C1
S1133640B00DA11D661F829F2227B00DA11D621F10
S1133650739FB00DA11D621F839FA00D611D221FCA
S1133660749F3327A00D611D231F849F600D211DAE
S1133670822F762F6A2F11249F5750408AF0E1F051
S113368088234AF0EE0FFF1FBB1F661F771F881F9A
S113369091505040A9F79E3F510570F060CFAACFDA
S11336A05F3FECF3983EDCF3869577956795B79585
S11336B0F795E7959F5FC1F7FE2B880F911D9695AF
S11336C0879597F90895FB01DC0102C001900D92E2
S11336D041505040D8F70895AEE0B0E0E2E7FBE196
S11336E00C941A1E0D891E8986E08C831A83098323
S11336F08FEF9FE79E838D83AE01475E5F4FCE01C0
S113370001966F89788D0E948E1BEF81F885E00FFA
S1133710F11F10822E96E4E00C94361EADE0B0E06A
S1133720E4E9FBE10C940C1E3C017D876C875A0193
S1133730FC0117821682838181FFC8C12E0108947F
S1133740411C511CF3019381EC85FD8593FD85910A
S113375093FF8191FD87EC87882309F4B3C18532F7
S113376041F493FD859193FF8191FD87EC87853228
S113377029F490E0B3010E94821DE4CFFF24EE24DB
S113378010E01032B0F48B3269F08C3228F48032BD
S113379051F0833271F40BC08D3239F0803349F427
S11337A011602CC01260146029C0186027C0106119
S11337B025C017FD2EC0282F20532A3098F416FF59
S11337C008C08F2D880FF82EFF0CFF0CF80EF20E98
S11337D015C08E2D880FE82EEE0CEE0CE80EE20ECE
S11337E010620CC08E3221F416FD6CC1106406C048
S11337F08C3611F4106802C0883659F4EC85FD85C6
S113380093FD859193FF8191FD87EC87882309F0CF
S1133810B8CF982F9554933018F09052933038F4D1
S113382024E030E0A20EB31E3FE339830FC0833699
S113383031F0833781F0833509F05AC022C0F50195
S11338408081898322E030E0A20EB31E21E0C22EE3
S1133850D12C420114C092E0292E312C2A0C3B1C9D
S1133860F5018080918016FF03C06F2D70E002C0C7
S11338706FEF7FEFC4010E94771D6C0151011F7728
S113388015C082E0282E312C2A0C3B1CF5018080C7
S1133890918016FF03C06F2D70E002C06FEF7FEFC1
S11338A0C4010E946C1D6C011068510113FD1CC001
S11338B006C080E290E0B3010E94821DEA948E2D3E
S11338C090E0C816D906A8F30FC0F40117FD85913E
S11338D017FF81914F0190E0B3010E94821DE11016
S11338E0EA940894C108D108C114D10471F7E7C05F
S11338F0843611F0893651F5F50117FF07C0808130
S11339009181A281B38124E030E008C0808191815B
S1133910AA2797FDA095BA2F22E030E0A20EB31E8D
S1133920012F0F76B7FF08C0B095A09590958195AB
S11339309F4FAF4FBF4F0068BC01CD01A2012AE0E9
S113394030E00E94AE1DD82ED4183FC0853721F434
S11339501F7E2AE030E020C0197F8F36A9F080371F
S113396020F4883509F0AEC00BC0803721F08837C9
S113397009F0A8C001C0106114FF09C0146007C099
S113398014FF08C0166006C028E030E005C020E13E
S113399030E002C020E132E0F50117FF07C060818A
S11339A071818281938144E050E006C0608171811D
S11339B080E090E042E050E0A40EB51EA2010E9417
S11339C0AE1DD82ED418012F0F7706FF09C00E7F25
S11339D0DF1430F404FF06C002FD04C00F7E02C0F1
S11339E01D2D01C01F2D802F90E004FF0CC0FE018F
S11339F0ED0DF11D2081203311F4097E09C002FF71
S1133A0006C01E5F05C086789070009709F01F5F9E
S1133A10802E992403FD12C000FF0DC0FD2C1E153D
S1133A2050F4FE0CF11A1E2D06C080E290E0B301A2
S1133A300E94821D1F5F1E15C0F304C01E1510F4E2
S1133A40E11A01C0EE2484FE0FC080E390E0B301CC
S1133A500E94821D82FE1FC081FE03C088E590E0A3
S1133A6010C088E790E00DC0C4018678907000977C
S1133A7091F081FC02C080E201C08BE207FD8DE27F
S1133A8090E0B3010E94821D06C080E390E0B30180
S1133A900E94821DFA94DF14C0F3DA94F201ED0D52
S1133AA0F11D808190E0B3010E94821DDD20A9F701
S1133AB006C080E290E0B3010E94821DEA94EE20E9
S1133AC0C1F740CEF3018681978102C08FEF9FEF4B
S1133AD02D96E2E10C94281EFC0105906150704083
S1133AE00110D8F7809590958E0F9F1F0895FC01C3
S1133AF06150704001900110D8F7809590958E0F19
S1133B009F1F08950F931F93CF93DF938C01EB01B5
S1133B108B8181FF1BC082FF0DC02E813F818C8170
S1133B209D812817390764F4E881F9810193F983A9
S1133B30E88306C0E885F985802F0995009731F45C
S1133B408E819F8101969F838E8302C00FEF1FEFAA
S1133B50C801DF91CF911F910F910895FA01AA270F
S1133B60283051F1203181F1E8946F936E7F6E5FBC
S1133B707F4F8F4F9F4FAF4FB1E03ED0B4E03CD06A
S1133B80670F781F891F9A1FA11D680F791F8A1F4D
S1133B90911DA11D6A0F711D811D911DA11D20D0B4
S1133BA009F468943F912AE0269F11243019305D6E
S1133BB03193DEF6CF010895462F4770405D41935F
S1133BC0B3E00FD0C9F7F6CF462F4F70405D4A33AC
S1133BD018F0495D31FD4052419302D0A9F7EACF74
S1133BE0B4E0A6959795879577956795BA95C9F7A3
S1133BF000976105710508959B01AC010A2E069496
S1133C005795479537952795BA95C9F7620F731F4E
S1133C10841F951FA01D08952F923F924F925F928B
S1133C206F927F928F929F92AF92BF92CF92DF92C8
S1133C30EF92FF920F931F93CF93DF93CDB7DEB72D
S1133C40CA1BDB0B0FB6F894DEBF0FBECDBF0994C1
S1133C502A88398848885F846E847D848C849B8418
S1133C60AA84B984C884DF80EE80FD800C811B8126
S1133C70AA81B981CE0FD11D0FB6F894DEBF0FBE55
S10D3C80CDBFED010895F894FFCFC5
S1133C8A1F0349444C45000708092F0405062A0165
S1133C9A02032D41003D2B2D0000257325640025C8
S1133CAA7325642E252E32640048616E646C655F48
S10F3CBA310048616E646C655F320000EC
S9030000FC
